:020000040800F2
:10000000B00800209D010008A5010008A701000814
:10001000A9010008AB010008AD01000800000000C4
:10002000000000000000000000000000AF01000818
:10003000B101000800000000B3010008B50100088C
:10004000B7010008B7010008B7010008B7010008B0
:10005000B7010008B7010008B701000881180008BF
:10006000B7010008B7010008B7010008B701000890
:10007000B7010008B7010008B7010008B701000880
:10008000B7010008B7010008B7010008B701000870
:10009000390F0008B7010008B7010008B7010008D0
:1000A000B7010008B7010008B7010008B701000850
:1000B000B7010008B7010008B7010008B701000840
:1000C000B7010008B7010008B7010008B701000830
:1000D000B7010008B7010008B7010008B701000820
:1000E000B7010008B7010008B7010008B701000810
:1000F000B7010008B7010008B7010008B701000800
:10010000B7010008B70100088D220008B7010008F8
:10011000B7010008B7010008B7010008B7010008DF
:10012000B7010008B7010008B7010008B7010008CF
:10013000B7010008B7010008B7010008B7010008BF
:1001400045120008B7010008B7010008B701000810
:10015000B7010008B7010008B7010008B70100089F
:10016000B7010008B7010008B7010008B70100088F
:10017000B7010008B7010008B7010008B70100087F
:10018000B7010008B7010008DFF80CD000F030FB21
:1001900000480047E5480008B008002006488047AE
:1001A00006480047FEE7FEE7FEE7FEE7FEE7FEE75C
:1001B000FEE7FEE7FEE7FEE73122000889010008BE
:1001C00040EA01039B0703D009E008C9121F08C0D9
:1001D000042AFAD203E011F8013B00F8013B521E59
:1001E000F9D270472DE9FE4F804681EA0300C00F27
:1001F0000C46009021F0004123F00045B8EB0200CE
:10020000A94105D24046214690461C460B4602466F
:1002100023F00040104347D0270DC7F30A00C3F373
:100220000A510290401A019040286BDAC3F3130080
:1002300040F4801B0098924620B10023D2EB030AC1
:1002400063EB0B0B01985946C0F14002504600F099
:10025000F3F906460D4650465946019A00F00BFA4E
:1002600010EB08006141002487EA115284EAE77329
:100270001A4340D0009A62B3019A012A4FEA07520A
:1002800015DC001B61EB02014FF0004202EA07524D
:10029000CDE90042001C41F5801132462B4600F0AA
:1002A00042FA03B0BDE8F08F40462146F9E7001B53
:1002B00061EB0201001C41F5801300185B4120181E
:1002C000A2F5001747EB030140EAD570B6196D415E
:1002D00011E06D084FEA360645EAC0754FEA07524D
:1002E000001B61EB0201001C41F5801149084FEA37
:1002F00030000019514132462B4603B0BDE8F04FA3
:1003000000F002BA0098012240000023D0EB020264
:1003100063EBE073009821464FEAE074B8EB00000D
:1003200061EB0401E9E783F000435BE781F0004102
:1003300058E72DE9FE4F81EA030404F0004421F060
:10034000004100944FF0000B23F0004350EA0104F9
:100350005ED052EA03045BD0C3F30A54C1F30A55DA
:100360002C44A4F2F3340194A0FB0254C1F3130112
:1003700041F48011C3F3130343F4801301FB0244DF
:1003800000FB034E840A970A44EA815447EA8357E4
:10039000A4FB076802958D0A05FB07854FEA932C9D
:1003A00004FB0C542705029D4FEA065847EA16370E
:1003B000B5EB08056EEB070C870E920E47EA811726
:1003C00042EA8312A7FB0201B6EB0B0164EB0004C7
:1003D0002B0D43EA0C335E1844EB1C50DA465146B1
:1003E000E7FB0201C5F313044FEA0B3343EA14534E
:1003F0004FEA0432019C43EA0603A4F10C04029480
:10040000009CCDE900B400F08EF903B0BDE8F08F98
:1004100000200146F9E72DE9F04D81EA030404F0DC
:10042000004B21F0004514464FF0000A23F0004134
:1004300050EA050220D054EA01021DD0C5F30A5744
:100440000246C5F31303C1F31300C1F30A5640F487
:10045000801543F48013A7EB0608101BD64608F25C
:10046000FD3873EB050002D308F1010801E0921892
:100470005B41B8F1000F03DA00200146BDE8F08DC2
:1004800000204FF48011064684460EE0171B73EBE4
:10049000050705D3121B63EB050306434CEA010C69
:1004A00049084FEA300092185B4150EA0107EDD14C
:1004B00052EA030012D082EA040083EA05010843ED
:1004C00005D0101BAB4106D20122002306E000221A
:1004D0004FF0004302E06FF0010253101AEB0600E8
:1004E0004CEB085110EB0A0041EB0B01BDE8F04D5D
:1004F00000F00AB90EB5C10F80EAE0700844CA07DF
:10050000002140F233438DE80E000A460B4600F00E
:100510000AF903B000BD0EB540F23341029100214B
:10052000CDE900110A460B4600F0FDF803B000BD0E
:1005300070B5C1F30A5201F000450024C1F3130164
:1005400040F2FF3341F480119A4201DA002070BD7D
:1005500040F233439A42A2F2334203DC524200F0AB
:100560007AF800E090402C43F1D0404270BDC1F3D6
:100570000A5210B5C1F3130140F2FF3341F4801168
:100580009A4201DA002010BD40F233439A42A2F2AF
:10059000334203DC524200F05EF810BD904010BDC3
:1005A00030B5041E71F1000404DB4FF000444042FA
:1005B00064EB0101141E73F1000405DB1C464FF0CF
:1005C0000043524263EB04038B4208BF824230BDBA
:1005D00030B5041E71F1000404DB4FF000444042CA
:1005E00064EB0101141E73F1000405DB1C464FF09F
:1005F0000043524263EB0403994208BF904230BD6E
:1006000001F0004330B421F0004150EA010206D06D
:100610000A0DA2F56072C1F31301002A02DC30BC9E
:1006200000207047440F44EAC104C100E01830BC08
:1006300000EBC25000F031B8202A04DB203A00FA67
:1006400002F1002070479140C2F1200320FA03F329
:10065000194390407047202A04DB203A21FA02F027
:100660000021704721FA02F3D040C2F120029140EC
:10067000084319467047202A06DBCB17203A41FA77
:1006800002F043EAE07306E041FA02F3D040C2F11F
:10069000200291400843194670470029A8BF7047BF
:1006A000401C490008BF20F00100704710B4B0FAA8
:1006B00080FC00FA0CF050EA010404BF10BC704743
:1006C00049B1CCF1200421FA04F411FA0CF118BF5D
:1006D000012121430843A3EB0C01CB1D4FEA00612C
:1006E0004FEA102042BF002010BC704700EBC350FF
:1006F00010440029A4BF10BC7047401C490008BF2B
:1007000020F0010010BC704710B5141E73F10004F6
:1007100008DA401C41F1000192185B411A4301D1F3
:1007200020F0010010BD2DE9F04D92469B4611B11D
:10073000B1FA81F202E0B0FA80F220329046FFF77F
:100740007BFF04460F4640EA0A0041EA0B0153468C
:100750005A46084313D0114653EA010019D0C8F194
:1007600040025046FFF777FF05460E465046594671
:100770004246FFF761FF084305D0012004E0204610
:100780003946BDE8F08D0020054346EAE0762C436B
:1007900037430A986305E40AA0EB08000022FD0A2B
:1007A00044EA47540A3002D500200146E9E7010532
:1007B00010196941DDE9084500196941BDE8F04DAE
:1007C000A2E770B521F0004303430CD0C1F30A55F2
:1007D0000024D5EB040564EB0403D617AD1AB3412E
:1007E00002DB0020014670BD201841EB025170BDB4
:1007F000064C074D06E0E06840F0010394E807006E
:1008000098471034AC42F6D3FFF7C2FCD04A000838
:10081000F04A00082DE9F04D00231A461B1A8A41C0
:1008200003DB00200146BDE8F08DC1F30A52C1F39D
:10083000130141F480154FF0000BD10702D10018CD
:100840006D41521E0027044640F2FF11384601EB6D
:10085000620A3E468046024600204FF48011FFF7B0
:10086000FAFEC2197141BB1846EB0100B4EB030C50
:1008700075EB000C04D3E41A65EB000517460E4631
:10088000241908F101006D4180463428E3DDF9198F
:1008900046EB0600091BA84103D24FF0FF32134676
:1008A00001E0002213461BEB070046EB0A51BDE8AE
:1008B000F04DFFF729BF70B58D1810F8014B14F0FB
:1008C000030201D110F8012B231106D110F8013BCE
:1008D00003E010F8016B01F8016B521EF9D1ABB1C6
:1008E00010F8012B04F00C048A1A0C2C03D0A2EB94
:1008F00084129B1C08E010F8014BA2EB0422F8E7DD
:1009000012F8014B01F8014B5B1EF9D5A942D4D373
:10091000002070BD002904D0816841F00101816090
:100920007047816821F001018160704710B5074C64
:10093000226807490A40D0E900131943D0E9023080
:10094000034319431143216010BD000004230140FB
:10095000E030FCFF002904D0816841F4807181609F
:100960007047816821F4807181607047002904D04C
:10097000816841F4007181607047816821F40071E1
:10098000816070477CB50121042001F0F9F8002551
:100990008DF807500120009003248DF80440114E7B
:1009A0006946304600F0D6FF0121084601F0E8F81C
:1009B0008DF80750102100918DF8044069460A48CF
:1009C00000F0C8FF0121042001F0DAF88DF807508B
:1009D000042000908DF804406946304600F0BAFFCC
:1009E0007CBD0000000802400000024010B5FFF787
:1009F000C9FFBDE8104000F027B8000030B54268DC
:100A00000F4B1A400C790B6842EA042213434360EF
:100A100083680C4A1340D1E9034222434D798C6824
:100A200044EA450422431A438260C26A22F47002F7
:100A3000097D491EC9B242EA0151C16230BD0000C0
:100A4000FFFEFFFCFDF7FFC0F0B599B0012188055E
:100A500001F096F801210E02304601F0BBF80327A1
:100A60000E9700240A940D941594012516952C4890
:100A70000C90179468031290C01010901396294898
:100A80000B901894C01411900F9480011490264E6E
:100A90000AA9304600F07EFE0121304600F06EFECD
:100AA00004A800F082F88DF81550089407948DF88A
:100AB0002470069404948DF814501A4D04A94C3DEA
:100AC0002846FFF79BFF029400944FF48031019178
:100AD00003946846FFF72AFF022301220A212846D1
:100AE00000F024F802231A460421284600F01EF8DC
:100AF000022303220C21284600F018F80121284681
:100B0000FFF734FF01212846FFF724FF0121284683
:100B1000FFF700FF284600F043F819B0F0BD0000D1
:100B2000700000204C2001401064024070B5072680
:100B300009290AD9C568A1F10A0404EB4404A640B6
:100B4000B543A3401D43C56007E0056901EB4104BF
:100B5000A640B543A3401D4305611F23072A09D2C0
:100B6000446B521E02EB820293409C4391400C4323
:100B7000446370BD0D2A09D2046BD21F02EB8202BE
:100B800093409C4391400C43046370BDC46A0D3A8A
:100B900002EB820293409C4391400C43C46270BDBF
:100BA000816841F0804181607047002101600171DE
:100BB00041718160C16001610121017570470000D0
:100BC0001CB50121102000F0DBFF00208DF804008F
:100BD0008DF8070002208DF805000420009069467A
:100BE000014800F0B7FE1CBD001002401CB50121F9
:100BF000582000F0C5FF01208DF8040000218DF879
:100C000006108DF8070002208DF805000003009003
:100C10006946084800F09EFE4FF400700090694657
:100C2000054800F097FE802000906946034800F0D8
:100C300091FE1CBD00100240000C02400018024052
:100C40007FB50121082000F09BFF0121072000F063
:100C500097FF01208DF80C0000248DF80E408DF8D0
:100C60000F0002258DF80D50402002900D4E02A974
:100C7000304600F06FFE4021304600F0C0FE8DF897
:100C800004408DF807408DF80550009569460648E8
:100C900000F060FE202000906946044800F05AFEF3
:100CA0007FBD0000000C024000080240000002402E
:100CB0001CB50121082000F063FF01208DF804001D
:100CC00000218DF806108DF8070002208DF8050030
:100CD00008200090044C6946204600F03BFE0821A5
:100CE000204600F08EFE1CBD000C02401CB5012108
:100CF000402000F045FF01208DF8040000218DF810
:100D000006108DF8070002208DF80500C001009044
:100D10006946024800F01EFE1CBD0000001802409B
:100D2000F0B58BB00121084600F02AFF434F09229D
:100D30000B21384600F04CFE09220C21384600F009
:100D400047FEB814099002268DF828608DF82960B6
:100D500000248DF82A4001258DF82B5009A938462A
:100D600000F0F8FDE80209908DF8286009A93846DE
:100D700000F0F0FD4FF4C06000F0F2FE14208DF89A
:100D800020008DF821508DF822408DF8235008A8BE
:100D900000F0B2FE0121480600F000FF284E304668
:100DA00000F0EAFA05A800F03AFC8DF81A408DF838
:100DB0001B508DF81C508DF81D408DF81E408DF88D
:100DC0001F408DF816408DF8175006218DF8181029
:100DD00005208DF81900ADF8141005A9304600F073
:100DE0005BFB8DF80E508DF80F408DF81050ADF86C
:100DF000044049F6A400ADF80600ADF80840ADF88F
:100E00000A40ADF80C408DF8115001A800F0D0FA5E
:100E100001220221304600F035FB09480C30016800
:100E200041F020010160016841F02001016001688A
:100E300041F0200101600BB0F0BD00000000024055
:100E4000006400400FB42DE9F0412DED068B119E9A
:100E50000024A6F16400FFF74DFB9FED308B0F4699
:100E6000054653EC182BFFF7D6FA9FED2E9B53EC5B
:100E7000192BFFF75EFA9FED2DAB53EC1A2BFFF702
:100E800058FAFFF774FB8DF83D0047EC105B53EC0C
:100E9000182B51EC100BFFF7BEFA53EC192BFFF790
:100EA00048FA53EC1A2BFFF744FAFFF760FB000AED
:100EB0008DF83E00642E07D04FF0FF008DF83F0004
:100EC00005D14FF0000004E04FF00000F6E74FF0CE
:100ED0002F008DF840004FF000008DF841008DF894
:100EE0004200144F0CA9384600F0A9FB064640F614
:100EF000FF7500E0641C3146384600F0FBFB08B982
:100F0000AC42F7DBAC4206DB0020BDEC068BBDE853
:100F1000F0015DF814FB0120F7E70000000000007D
:100F200000409F409A9999999999D93F00000000F3
:100F300080FFCF40006400402DE9F047564801682B
:100F400081F008010160554A0021554800F026FB58
:100F5000524D2868A0F283200E2837D2DFE800F037
:100F60001307190D1F2B2536363636363631142227
:100F70004A494C48FFF724F928E0142247494A48D7
:100F8000FFF71EF922E0142244494848FFF718F9F8
:100F90001CE0142241494648FFF712F916E01422DA
:100FA0003E494448FFF70CF910E014223B494248FF
:100FB000FFF706F90AE0142238494048FFF700F924
:100FC00004E0142235493E48FFF7FAF86868002427
:100FD000B0F5927F5AD13B4E7471707CB0B370788B
:100FE000A8B3F07898B33848EA7A4715DFF8DC8080
:100FF000DFF8DC904FF40051012A06D0022A0FD00E
:10100000032A18D0042A32D122E000F0FAFC394633
:10101000404600F0F6FC8021484600F0F0FC26E057
:1010200000F0EFFC3946404600F0EBFC80214846DA
:1010300000F0E7FC1BE000F0E2FC3946404600F01F
:10104000E0FC8021484600F0DAFC10E01EE014E0ED
:1010500000F0D5FC3946404600F0D3FC80214846DC
:1010600000F0CFFC707C042801D00120B074E87A35
:10107000707403280ED0002030761648A97B0173C7
:10108000E97B4173287C3073A87CB0752C606C6060
:10109000BDE8F0870120EFE714080240CC010020F2
:1010A000006400402C010020400100205401002079
:1010B00068010020A4010020B80100207C0100206C
:1010C000900100201000002000100240000C02409F
:1010D00000180240C8000020F0B58BB001210220AA
:1010E00000F04EFD444F09220C21384600F070FC00
:1010F00009220D21384600F06BFC4FF40050099096
:1011000002268DF828608DF8296000248DF82A4089
:1011100001258DF82B5009A9384600F01BFC280347
:1011200009908DF8286009A9384600F013FC4FF4A7
:10113000C06000F015FD40208DF820008DF82140A2
:101140008DF822408DF8235008A800F0D5FC01212D
:10115000880600F023FD294E304600F00DF905A861
:1011600000F05DFA8DF81A408DF81B508DF81C5078
:101170008DF81D408DF81E408DF81F408DF81640EB
:101180008DF8175006218DF8181005208DF81900DC
:10119000ADF8141005A9304600F07EF90E208DF848
:1011A0000E008DF80F408DF81050ADF8044049F650
:1011B000A400ADF80600ADF80840ADF80A40ADF85F
:1011C0000C408DF8115001A800F0F2F80C490868A5
:1011D00040F02000086001220221304600F052F960
:1011E00001220221304600F04DF901220221304651
:1011F00000F048F90BB0F0BD000402400068004068
:101200000C6400400FB42DE9F04100240C4F06A9F6
:10121000384600F014FA064640F6FF7500E0641CFC
:101220003146384600F066FA08B9AC42F7DBAC420A
:1012300004DB0020BDE8F0015DF814FB0120F9E7B4
:101240000068004070B52DED048B0021404A4148F4
:1012500000F0A4F93E4C404E00252068B0F5157F03
:1012600042D005DC11280ED0B0F59A7F6AD166E035
:10127000A0F58060073860D0A0F580705D3861D13E
:10128000E07A30755EE03571707C00285AD0E07AE3
:1012900004213F281FD0662823D0AB2802D0CC28B9
:1012A00050D115E07278012002B1B074757071747C
:1012B00070754FF40051294800F0A1FB4FF4007104
:1012C000274800F09EFB8021264800F09AFB39E079
:1012D0000220707036E07078042800D0B574717008
:1012E00030E0062070702DE03572E17BA27B9FED2F
:1012F0001E8B41EA02209FED1E9BB0F5006F0ED9B8
:10130000A1F5805141EA0220FFF7F4F853EC182BC5
:10131000FFF70FF853EC192BFFF70BF809E0FFF775
:10132000FAF853EC182BFFF704F853EC192BFFF7DE
:1013300000F8FFF765F9306404E0F57102E0F5723A
:10134000A07B708525606560BDEC048B70BD0000DE
:1013500078000020006800401000002000100240CB
:10136000000C024000180240000000000000403F56
:10137000000000000080664010B50C4988420AD188
:1013800001214C06204600F017FC2046BDE8104025
:10139000002100F011BC01218C06204600F00CFC5D
:1013A0002046BDE81040002100F006BC006400406B
:1013B000F0B5827A01219140304C226842F001025E
:1013C00022602E4D1C352A688A432A602B4A067BF0
:1013D0000C322B4B002E14D116688E4316604688B3
:1013E000C78846EA0746877A03EBC707C7F840660F
:1013F0000688878846EA0746877A03EBC707C7F857
:101400004466067B012E14D116680E43166042888E
:10141000068842EA0642867A03EBC606C6F84026EC
:10142000C288868842EA0642867A03EBC603C3F87E
:101430004426124AC37A121D3BB113680B43136052
:101440000E4A0389143223B106E013688B431360FC
:10145000F6E713688B4313600389012B02D11368ED
:101460000B431360407B012802D1286808432860A1
:10147000206820F001002060F0BD00000066004000
:1014800000600040002A03D042690A43426170476D
:1014900042698A434261704710B50022036823F015
:1014A00002030360036843F0010303604FF6FF7318
:1014B00000E0521C4468E40701D19A42F9D1426825
:1014C000D2073ED08A79012A3DD0026822F08002FC
:1014D0000260CA79012A3BD0026822F04002026011
:1014E0000A7A012A39D0026822F0200202604A7A80
:1014F000012A37D0026822F0100202608A7A012A9B
:1015000035D0026822F008020260CA7A012A33D07C
:10151000026822F0040202608A78CC78920742EADC
:1015200004620C7942EA04424C79098842EA045286
:10153000491E0A43C261016821F0010101600021D6
:1015400020E0002010BD026842F080020260C0E787
:10155000026842F040020260C2E7026842F02002E4
:101560000260C4E7026842F010020260C6E7026847
:1015700042F008020260C8E7026842F0040202601A
:10158000CAE7491C4268D20701D09942F9D14068A4
:10159000C00701D0002010BD012010BD10B500EB28
:1015A0000113D3F8B04104F004041472002C2CD0C1
:1015B000D3F8B041E408546003F5D8731C6804F014
:1015C000020454725C6804F00F0494725C68240A8C
:1015D000D4749C68D4729C68240A14739C68240C8C
:1015E00054739C68240E9473DC68D473DC68240AFA
:1015F0001474DC68240C5474DB681B0E937449B1BA
:10160000016941F02001016110BDD3F8B041640DC2
:101610001460D1E7C16841F02001C16010BD002114
:101620008171C171017241728172C1728170C17028
:10163000032101710221417101210180704730B500
:101640000246002093685B010AD49068000101D52E
:10165000012005E09068C00001D5022000E00420D0
:1016600004283BD002EB0012D2F8803103F00103D2
:10167000C2F880310B7A93B3D2F880414D681C4395
:101680004B7A43EAC5031C43C2F880418B7A03F0CE
:101690000F038B7202F5C072536823F00F0353607F
:1016A00053688C7A23435360CB7A8C7B0D7B43EA5F
:1016B00004634C7B240444EA052423439360CB7BDE
:1016C0008C7C43EA04634C7C097C240444EA0121B9
:1016D0000B43D360116841F00101116030BDFFE799
:1016E000D2F880314C7A23430C8843EA4453C2F841
:1016F0008031CBE70022002904D0012906D002293D
:101700000BD107E082681848024006E0826817485B
:10171000024002E08268164802401649501A8A4286
:1017200018D007DC92B16FF08060101810D002283A
:1017300009D113E0B0F5007F12D00F4940180BD04B
:10174000B0F5003F0ED00020C0B270470220FBE78A
:101750000020F9E70020F7E70020F5E70120F3E794
:101760000120F1E70120EFE7030000040003000877
:1017700000000310000100080001FFF7002904D059
:10178000016841F0010101607047016821F0010129
:101790000160704730B50368124A1340CC680A688C
:1017A0002243D1E905452C432243CC6922430C6AEC
:1017B00022434C6A22438C6A22434C6B22438C6B3B
:1017C00022431A430260426922F00703D1E90B2445
:1017D00022431A4342610A6942604A68826089680A
:1017E000C16030BD3F801CF070B586B00121084655
:1017F00000F0C6F90121102000F0ECF91E4E07227E
:101800000A21304600F0E4F807220921304600F0B2
:10181000DFF800248DF8164001208DF8170002250E
:101820008DF81450410204918DF8155004A93046EA
:1018300000F090F88DF814506802049004A9304626
:1018400000F088F84FF416500090ADF80440ADF861
:101850000640ADF80840ADF80C400C20ADF80A0089
:10186000064C6946204602F087F80121204602F026
:1018700077F806B070BD0000000002400010014083
:1018800010B5022000F022F8002814D00A490B48B5
:101890004A7B2AB101220A70402100F0B2F805E02B
:1018A00000220A70CA84402100F0A9F8BDE8104067
:1018B000022000F005B810BD10000020000C02400E
:1018C0000149086070470000143C014001460020B7
:1018D000024A12680A4200D001207047143C0140BD
:1018E00030B51B4A83790168002B2AD013688B43DB
:1018F0001360111D0B680468A3430B600179114448
:101900000B68046823430B60114C0834216803689A
:1019100099432160231D19680568A943196041791D
:10192000102905D011440A68006802430A6030BDDE
:101930002168026811432160196800680143196039
:1019400030BD0079104402688A43026030BD000057
:10195000003C01402DE9F041002201274FF0030C2B
:1019600007FA02F50B682B40AB422CD106685300F6
:101970000CFA03F4A64306600E79D0F800809E406E
:1019800046EA080606600E79012E01D0022E12D119
:101990008668A64386604E79D0F808809E4046EA65
:1019A000080686604668AE43466045688E79964074
:1019B000B6B235434560C568A543C560CC799C4047
:1019C000C3681C43C460521C102AC9D3BDE8F0810F
:1019D00010B54B07DB0E9A40C90800EB8100016A85
:1019E0000F249C40A1430162016A1143016210BDB2
:1019F0000246002012690A4200D00120704741834C
:101A000070470183704710B50446182002F0AAFF02
:101A10006060206018B100214161012010BD0020EC
:101A200010BD000010B50648FFF7EDFF30B10448C7
:101A30000830FFF7E8FF08B1012010BD002010BDFD
:101A4000E00100201CB50121242000F099F80120BC
:101A50008DF8040000218DF806108DF807008DF830
:101A600005100820009069460848FFF773FF8020A2
:101A70000090074C69462046FFF76CFFA1150091C6
:101A800069462046FFF766FF1CBD000000080240C3
:101A900000140240FEB532208DF8080001248DF8B4
:101AA000094003208DF80A008DF80B4002A800F0D1
:101AB00023F807208DF8080000258DF8095002262C
:101AC0008DF80A608DF80B4002A800F015F801218E
:101AD000880300F07FF80121022000F037FB009618
:101AE0008DF8045008208DF805008DF806406846F2
:101AF000FFF7F6FEFEBD000030B50F23C2780125CA
:101B00000178002A1FD0154A126802F4E062C2F57B
:101B1000E062C2F30722C2F10404D3404278A2403B
:101B200084781C401443220101F1E02181F8002453
:101B3000007800F01F018D404009800000F1E02096
:101B4000C0F8005130BD01F01F00854048098000F9
:101B500000F1E020C0F8805130BD00000CED00E045
:101B60000249084302490860704700000000FA0576
:101B70000CED00E0014908627047000000000E42D1
:101B8000054A002903D011680143116070471168AC
:101B9000814311607047000030380240054A002937
:101BA00003D01168014311607047116881431160CF
:101BB0007047000040380240054A002903D01168F0
:101BC0000143116070471168814311607047000044
:101BD00020380240054A002903D0116801431160F2
:101BE000704711688143116070470000443802401B
:101BF00070B5244B196801F00C01234C00291ED04C
:101C0000224E04291DD008291DD00460196801F056
:101C1000F00109091E4A545C0168E14041601C68FA
:101C200004F4E054A40A145D21FA04F484601B68EF
:101C300003F460435B0BD25CD140C16070BD0460B3
:101C4000E4E70660E2E70F4A121F1168C1F380550E
:101C5000116801F03F0135B1B6FBF1F11468C4F32E
:101C60008814614305E0B4FBF1F11468C4F38814EF
:101C700061431268C2F30142521C5200B1FBF2F1FF
:101C80000160C3E7083802400024F40040787D0179
:101C90000000002002460020510901290BD0022932
:101CA0000DD00949096802F01F02012393400B423D
:101CB00000D001207047044974390968F3E70249EC
:101CC000091F0968EFE70000743802400649002246
:101CD0000A700A70012804D0042801D10520087078
:101CE0007047012008707047703802400149086051
:101CF000704700003C0E4742C0F30121032907D181
:101D0000074B196821F4F812064901401143196084
:101D1000034A68321168C0F30B0001431160704739
:101D200008380240FFFCFF0F0FB42DE9F0410024FA
:101D30000C4F06A93846FFF782FC064640F6FF75B1
:101D400000E0641C31463846FFF7D4FC08B9AC42C9
:101D5000F7DBAC4204DB0020BDE8F0015DF814FBCA
:101D60000120F9E700640040010901EB810149000D
:101D700000F00F000844C0B27047002103E0491C86
:101D8000C9B20A38C0B20A28F9D2090740EA11607C
:101D900070470EB501210807FFF700FF0120FFF78C
:101DA000E9FE0120FFF792FF4120FFF773FF0028B3
:101DB000FAD04FF48070FFF79FFF0120FFF796FFE6
:101DC00000F07CF97F200190FF200290002000901D
:101DD000684600F07BF818B100F046F901200EBD0E
:101DE00000200EBD08B5002000900E49086840068E
:101DF00015D44FF0FF3008608B13086800F04000E6
:101E0000009A521C0092009A9A4201D00028F4D005
:101E10000868400601D5012008BD002008BD01204A
:101E200008BD00000C2800400248016821F0800134
:101E3000016070470C28004010B502460C460E4861
:101E400001680E480140080CE070C1F30423637080
:101E500001F03F03A370C1F342312170002A0AD17F
:101E6000FFF782FFE0706078FFF77EFF6070A07878
:101E7000FFF77AFFA07010BD042800403FFFFF006D
:101E800010B502460C460F4801680F480140C1F3E7
:101E900005402070C1F30623637001F07F03A37037
:101EA00001F48001090CE170002A0AD1FFF75CFF00
:101EB00020706078FFF758FF6070A078FFF754FF3C
:101EC000A07010BD002800407F7F7F0070B50446E1
:101ED0000025114ECA20306053203060FFF782FF8A
:101EE000A8B10D481C38016821F04001016001686B
:101EF0002268114301600848A16814380160016834
:101F0000A28841EA02410160FFF78EFF0125FF2010
:101F10003060284670BD00002428004070B505469A
:101F20000C460026002D06D16078C10603D520F0AE
:101F300010000A3060702DB16078FFF715FFA078AF
:101F4000FFF712FF55B1A078E17840EA01456078CB
:101F50002178000240EA413005430FE0E078FFF7C6
:101F60000CFF05046078FFF708FF45EA0025A0781C
:101F7000FFF703FF0543207845EA40350E4CCA20A1
:101F8000206053202060FFF72DFF88B10B480540EB
:101F9000094820380560FFF747FF07481C380068EC
:101FA000800604D400F08AF810B1012600E0012672
:101FB000FF202060304670BD242800403FFFFF0016
:101FC0002DE9F04105460C4600260020244F002D47
:101FD00006D03968490608D52078FFF7C5FE05E028
:101FE0003968490602D4E07000E0E07055B1A0788D
:101FF000217840EA01456078E178000240EA01403A
:1020000005430FE02078FFF7B8FE05046078FFF77E
:10201000B4FE45EA0025A078FFF7AFFE0543E0785F
:1020200045EA00450E4CCA201C3420605320206035
:10203000FFF7D8FE78B10B4805400948083805601D
:10204000FFF7F2FE3868800604D400F037F810B1CC
:10205000012600E00126FF2020603046BDE8F08127
:10206000082800407F7F7F001CB500208DF8070006
:1020700009218DF8041010218DF805108DF8060047
:1020800001A9FFF79DFF43F2F2242146002000F052
:102090003BF802208DF8000019208DF802000C207A
:1020A0008DF8010013208DF8030069460020FFF72A
:1020B00035FF2146002000F027F81CBD18B5002090
:1020C0000090104BCA201860532018600D49183931
:1020D000086820F0A00008604FF40034086800F0A1
:1020E0002000009A521C0092009AA24201D00028BF
:1020F000F4D00868800601D5012000E00020FF210F
:10210000196018BD2428004008B5034A02EB80007E
:1021100000900098016008BD502800401CB50121C6
:102120000820FFF72DFD01208DF8040000218DF817
:1021300006108DF807008DF80510009069460248DA
:10214000FFF708FC1CBD0000000C024010B58A0718
:10215000120F0F23934021F003040649214401F696
:1021600008010C689C430C600B68904003430B60B3
:1021700010BD0000003001400CB500220192009219
:102180002749086840F4803008604FF4A04308688D
:1021900000F4003000900198401C0190009810B9A4
:1021A00001989842F3D10868800302D5012000907D
:1021B00000E000920098012831D1194840300268AF
:1021C00042F0805202601748026842F440420260C6
:1021D0001348083002680260026842F4004202605C
:1021E000026842F4A0520260021F0F4B13600A689B
:1021F00042F080720A600A689201FCD50B4A40F2F4
:1022000005711160016821F003010160016841F06E
:10221000020101600168C1F381010229FAD10CBDFC
:10222000003802400070004019544007003C024052
:1022300010B51248016841F470010160104801684E
:1022400041F0010101600E4A00210832116002686C
:102250000C4B1A400260031D0B4A1A60026822F4FC
:102260008022026006480C300160FFF785FF0349B9
:102270004FF000608039086010BD000088ED00E07C
:1022800000380240FFFFF6FE103000242DE9F04F29
:102290002DED108B8DB00121FE4801F0ECFA0128E4
:1022A0007ED1FD484FF001090024407958B1FB4828
:1022B00080F81290DFF8E8A39AF8100010B39AF8AB
:1022C000250018B107E0F5488474F3E79AF8060092
:1022D000401C8AF806009AF80B00401C8AF80B0094
:1022E0009AF80800401C8AF808009AF8110048B1D2
:1022F0009AF80500401C8AF805009AF80400401C72
:102300008AF804009AF83C00DFF88C839FEDE58B97
:1023100010F0010008F1200802D001287ED169E107
:10232000E249E248897B407B01F07F0140EA0120DD
:10233000D9490A390880DD48007BC0F300128A7150
:10234000C0F34002CA70C0F3C0024A7100F001023B
:102350008A70C0F380020A71C2094A72C0F3801207
:102360000A72C0F34010C871D14DA87C697C00F09E
:102370007F0041EA0020FEF7CEF853EC182BFDF762
:10238000D8FFFEF73DF9C8F80C00A97B687B01F087
:102390007F0140EA0120FEF7BEF853EC182B00E065
:1023A000FCE3FDF7C6FFFEF72BF9C8F80400297B14
:1023B000E87A01F07F0140EA0120FEF7ACF853EC27
:1023C000182BFDF7B6FFFEF71BF9C8F80000297CB3
:1023D000E87B01F07F0140EA0120A8F80800B54839
:1023E000827B417B02F07F0241EA0222AA490A80F5
:1023F000007BC0F300128A71C0F34002CA70C0F3C0
:10240000C0024A7100F001028A70C0F380020A71B2
:10241000C2094A72C0F380120A7200E0FEE3C0F300
:102420004010C871A44DA87C697C00F07F0041EA8F
:102430000020FEF770F853EC182BFDF77AFFFEF73B
:10244000DFF8954E3036F060A97B687B01F07F01A4
:1024500040EA0120FEF75FF853EC182BFDF769FF07
:10246000FEF7CEF87060297BE87A01F07F0140EA40
:102470000120FEF750F853EC182BFDF75AFFFEF73A
:10248000BFF83060297CE87B01F07F0140EA012041
:1024900030818A48827B417B02F07F0241EA02223E
:1024A000A6F126010A80007BC0F300128A71C0F3F6
:1024B0004002CA70C0F3C0024A7100F001028A7083
:1024C000C0F380020A71C2094A72C0F380120A7214
:1024D000C0F34010C8717A4DA97C687C01F07F017F
:1024E00040EA0120FEF717F853EC182BFDF721FF07
:1024F000FEF786F81036F060A97B687B01F07F015B
:1025000040EA0120FEF707F853EC182BFDF711FF06
:10251000FEF776F87060297BE87A01F07F0140EAE7
:102520000120FDF7F8FF53EC182BFDF702FFFEF733
:1025300067F83060297CE87B01F07F0140EA0120E8
:1025400030816048827B417B02F07F0241EA0222B7
:10255000A6F12C010A80007BC0F300128A71C0F33F
:102560004002CA70C0F3C0024A7100F001028A70D2
:10257000C0F380020A71C2094A72C0F380120A7263
:10258000C0F34010C871504DA97C687C01F07F01F8
:1025900040EA0120FDF7BFFF53EC182BFDF7C9FE01
:1025A000FEF72EF81036F060A97B687B01F07F0102
:1025B00040EA0120FDF7AFFF53EC182BFDF7B9FE01
:1025C000FEF71EF87060297BE87A01F07F0140EA8F
:1025D0000120FDF7A0FF53EC182BFDF7AAFEFEF734
:1025E0000FF83060297CE87B01F07F0140EA012090
:1025F000308196E30320284E283E00EB4002411C28
:1026000001EB410136F8123026F8113006EB420298
:1026100006EB410153884B8092888A80401E9FEDD3
:102620002B9B9FED2CCB9FED2DEB9FED2EAB9FEDCC
:102630002FFB9FED30BB0028DFDA30480188318066
:10264000418871808088B08030880B90F1880A9131
:10265000B6F80CB0778A08440BEB07010144308BC5
:1026600005230144B1FBF3F15546AAF834107188F3
:102670003289B6F814C01144F28962441144728B55
:102680001144B1FBF3F1E986FDF745FF53EC1C2B38
:1026900036E00000000C00404C0200208C000020BE
:1026A000100000209A9999999999B93F2C0100201E
:1026B0004001002054010020680100207C0100201E
:1026C00090010020A4010020B801002000000000BB
:1026D00000E085409A9999999999D93F33333333DA
:1026E0003333E33F666666666666E63F9A99999974
:1026F0009999E93F555555555555D53F70000020DE
:10270000FDF717FECDE906013846FDF704FF9FED02
:10271000FEDB53EC1D2BFDF70CFECDE90401584602
:10272000FDF7F9FE53EC1E2BFDF703FECDE9020188
:102730000A98FDF7F0FE53EC1A2BFDF7FAFDCDE9F0
:1027400000010B98FDF7E7FE53EC1F2BFDF7F1FDA1
:102750009DED001B53EC112BFDF744FD9DED021B7D
:1027600053EC112BFDF73EFD9DED041B53EC112B9B
:10277000FDF738FD9DED061B53EC112BFDF732FDE7
:1027800053EC1B2BFDF7D5FD9FEDE11B53EC112BFB
:10279000FDF71EFF49D2308BFDF7BDFE53EC1C2B1D
:1027A000FDF7C7FDCDE90601708AFDF7B4FE53ECD5
:1027B0001D2BFDF7BEFDCDE90401B089FDF7ABFE91
:1027C00053EC1E2BFDF7B5FDCDE90201F088FDF7B6
:1027D000A2FE53EC1A2BFDF7ACFDCDE900013088C9
:1027E000FDF799FE53EC1F2BFDF7A3FD9DED001B9C
:1027F00053EC112BFDF7F6FC9DED021B53EC112B56
:10280000FDF7F0FC9DED041B53EC112BFDF7EAFCEA
:102810009DED061B53EC112BFDF7E4FC53EC1B2B39
:10282000FDF787FD41EC100B01E09FEDB90B51EC7A
:10283000100BFDF79CFE2886708BFDF76CFE53ECA9
:102840001C2BFDF776FDCDE90601B08AFDF763FE8E
:1028500053EC1D2BFDF76DFDCDE90401F089FDF76B
:102860005AFE53EC1E2BFDF764FDCDE902013089C1
:10287000FDF751FE53EC1A2BFDF75BFDCDE900018E
:102880007088FDF748FE53EC1F2BFDF752FD9DEDC0
:10289000001B53EC112BFDF7A5FC9DED021B53EC27
:1028A000112BFDF79FFC9DED041B53EC112BFDF745
:1028B00099FC9DED061B53EC112BFDF793FC53EC9B
:1028C0001B2BFDF736FD53EC192BFDF781FE46D28D
:1028D000708BFDF720FE53EC1C2BFDF72AFD41EC1D
:1028E000190BB08AFDF717FE53EC1D2BFDF721FDE8
:1028F000CDE90601F089FDF70EFE53EC1E2BFDF726
:1029000018FDCDE904013089FDF705FE53EC1A2BC3
:10291000FDF70FFDCDE902017088FDF7FCFD53ECDA
:102920001F2BFDF706FD9DED021B53EC112BFDF750
:1029300059FC9DED041B53EC112BFDF753FC9DED51
:10294000061B53EC112BFDF74DFC53EC192BFDF737
:1029500049FC53EC1B2BFDF7ECFC41EC190B51EC43
:10296000190BFDF704FE80B268862A8E40F6C4116A
:102970008A4206D8884204D8E88D40F68C218842E5
:1029800001D96C756C73308BFDF7C5FD1FEDAF1B66
:1029900053EC112BFDF7CDFC41EC190B708AFDF7C0
:1029A000BAFD9FED591B53EC112BFDF7C2FC41EC16
:1029B0001C0BB089FDF7AFFD1FEDB81B53EC112BBD
:1029C000FDF7B7FC41EC1D0BF088FDF7A4FD53ECBF
:1029D0001A2BFDF7AEFC41EC1E0B3088FDF79BFD7A
:1029E0001FEDBE1B53EC112BFDF7A3FC53EC1E2B6C
:1029F000FDF7F8FB53EC1D2BFDF7F4FB53EC1C2B00
:102A0000FDF7F0FB53EC192BFDF7ECFB53EC1B2B04
:102A1000FDF78FFC9FED401B53EC112BFDF7C0FD24
:102A200001D2288E01E040F634002886708BFDF735
:102A300072FD1FEDD8EB53EC1E2BFDF77AFC41EC39
:102A4000190BB08AFDF767FD9FED2FFB53EC1F2B91
:102A5000FDF76FFC41EC1C0BF089FDF75CFD1FEDF1
:102A6000E11B53EC112BFDF764FC41EC1D0B30898D
:102A7000FDF751FD1FEDE51B53EC112BFDF759FC44
:102A800041EC1A0B7088FDF746FD1FEDE81B53EC77
:102A9000112BFDF74EFC53EC1A2BFDF7A3FB53EC67
:102AA0001D2BFDF79FFB53EC1C2BFDF79BFB53EC01
:102AB000192BFDF797FB1FEDF11B53EC112BFDF7C5
:102AC00038FC9FED171B53EC112BFDF769FD01D26C
:102AD000688E01E04FF496606886B08BFDF71BFDB1
:102AE0009FED111B53EC112BFDF723FC41EC190B4F
:102AF000F08AFDF710FD9FED041B53EC112BFDF741
:102B000018FC41EC1A0B13E0000000000000E03F4D
:102B10000000000000005940000000000068A040D4
:102B20000000000000C092409A9999999999D93F64
:102B3000308AFDF7F0FC9FEDFECB53EC1C2BFDF72C
:102B4000F8FB41EC1B0B7089FDF7E5FC9FEDFADB10
:102B500053EC1D2BFDF7EDFB41EC1F0BB088FDF78F
:102B6000DAFC9FEDF7EB53EC1E2BFDF7E2FB53EC89
:102B70001F2BFDF737FB53EC1B2BFDF733FB53ECFF
:102B80001A2BFDF72FFB53EC192BFDF72BFB9FEDB9
:102B9000EEBB53EC1B2BFDF7CCFB00E0FEE39FEDFF
:102BA000EC9B53EC192BFDF713FD46D2B08BFDF7D0
:102BB000B2FC1FED231B53EC112BFDF7BAFB41ECCC
:102BC000190BF08AFDF7A7FC1FED311B53EC112BFD
:102BD000FDF7AFFB41EC1A0B308AFDF79CFC53EC80
:102BE0001C2BFDF7A6FB41EC1C0B7089FDF793FC39
:102BF00053EC1D2BFDF79DFB41EC1D0BB088FDF741
:102C00008AFC53EC1E2BFDF794FB53EC1D2BFDF7B8
:102C1000E9FA53EC1C2BFDF7E5FA00E081E053ECF8
:102C20001A2BFDF7DFFA53EC192BFDF7DBFA53EC07
:102C30001B2BFDF77EFB41EC190B51EC190BFDF73B
:102C400096FCE88501F02EFE688E40F22D31884218
:102C500001D9E97C19B9D72801D285F80E90E88E00
:102C6000FDF759FC0F4606469FEDBBDB53EC1D2BD1
:102C7000FDF75FFB41EC1A0B47EC196B9FEDB8CBEE
:102C800051EC190B53EC1C2BFDF753FB53EC192B98
:102C9000FDF74FFB53EC1A2BFDF745FB9FEDB2EB15
:102CA00053EC1E2BFDF73FFB41EC1A0BA88EFDF7F2
:102CB00032FC47EC196B41EC1B0B53EC1D2B51EC18
:102CC000190BFDF736FB47EC196B41EC1D0B53EC70
:102CD0001C2B51EC190BFDF72CFB53EC192BFDF7BA
:102CE00028FB53EC1D2BFDF71EFB53EC1E2BFDF7B1
:102CF0001AFB53EC1B2BFDF716FB53EC1A2BFDF7BD
:102D00008AFB41EC100B9FED9A1B00F0B1FE9FED8A
:102D10009A1B51EC100B53EC112BFDF759FC00D30F
:102D2000EC739AF83C00964DC0074FF064064CD106
:102D30009AF81000934F10B19AF81110C9B1DFF84A
:102D400048B29FED929A00287DD09AF81100002891
:102D5000FAD09AF80110022937D0042935D3BAF8ED
:102D60002E20B2F5AF6F30D2062901D002286CD0E8
:102D700087E09AF81300DFF818B268B99AF80F00E4
:102D80000A2809D04FF480718248FEF73AFE9AF87B
:102D9000000001281AD05CE0CDE901643869009098
:102DA0000FCFFEF74FF8CDE90164DBF8100000907B
:102DB000BBE80F00FEF746F8286880F480702860B2
:102DC0004FF480717348FEF71AFE24E19AF80E0062
:102DD000D0B3286880F480702860BAF83200642884
:102DE00022D09AED100ABAF83010BCEEC00A10EEEC
:102DF000100A80B2CDE90110DBF810000090BBE8AA
:102E00000F00FEF71FF89AED100ABAF83010BCEE6A
:102E1000C00A10EE100A80B2CDE9011038690090A6
:102E20000FCFFEF70FF8F6E0CDE90164DBF81000F4
:102E30000090BBE80F00FEF705F8CDE901643869A2
:102E400000900FCF02E0CEE003E017E0FDF7FAFFBD
:102E5000E1E0CDE90164DBF810000090BBE80F0071
:102E6000FDF7F0FFCDE90164386900900FCFFDF761
:102E7000E9FF286880F480702860CCE09AF816207A
:102E800072B1062908D0012806D0032804D00428EE
:102E900002D09AF81600C0B39AF81600A8BB35E025
:102EA00008200BEB800191ED000A411C0BEB810126
:102EB00081ED000A401E0028F3DAAAF8384000200D
:102EC0000BEB8001D1ED000ABAF8381000EE101AB1
:102ED000B8EE400A30EE800ABCEEC00A10EE101ABE
:102EE000AAF83810401C0A28EADBBAF83800FDF7C7
:102EF00012FB53EC182BFDF71CFAFDF738FBAAF870
:102F00003800286880F48070286084E008200BEB8B
:102F1000800191ED000A411C0BEB810181ED000A5B
:102F2000401E0028F3DA8BED009AAAF8384033E00F
:102F3000333333333333E33F666666666666E63FB4
:102F40009A9999999999E93F555555555555D53FB0
:102F5000000000000040654001DE02098A1FDB3FDF
:102F600005DB8827BB99713F000000000002AC40E0
:102F700000000000000000407B14AE47E17A843F6F
:102F800014140240F0000020FC01002000000000AA
:102F9000040100200018024000200BEB8001D1ED5D
:102FA000000ABAF8381000EE101AB8EE400A30EEF7
:102FB000800ABCEEC00A10EE101AAAF83810401CA5
:102FC0000A28EADBBAF83800FDF7A5FA53EC182B0B
:102FD000FDF7AFF9FDF7CBFAAAF83800286880F4BE
:102FE0008070286017E0CDE90164386900900FCF48
:102FF000FDF728FF286880F4807028604FF4807106
:10300000FC48FEF7FCFC09200BEB800181ED009AE7
:10301000401E0028F8DADAF83C100A20B1FBF0F282
:1030200000FB12109FEDF48BF54FE0BB9AF81400F3
:10303000F8729AED160B53EC102B9AED140B51EC21
:10304000100BFDF7CFF853EC182BFDF772F99FED3D
:10305000ED1B53EC112BFDF7A3FA35D29AF80100C2
:1030600004282FD00220B8749AED160B53EC102BC5
:103070009AED140B51EC100BFDF7B4F883469FED5D
:10308000E38B099153EC182BFDF753F9FDF750FA38
:103090003873099953EC182B41EC10BB51EC100B11
:1030A000FDF747F900E04AE09FEDDA1B53EC112BE6
:1030B000FDF73FF9FDF73CFA90FBF6F106FB110036
:1030C000787332E00320CEE79AF80100042801D09B
:1030D000012000E00020B8749AED160B53EC102B81
:1030E0009AED140B51EC100BFDF77CF8834653EC72
:1030F000182B0891FDF71DF9FDF71AFA3873089996
:1031000053EC182B41EC10BB51EC100BFDF711F9EF
:103110009FEDC01B53EC112BFDF70BF9FDF708FADF
:1031200090FBF6F106FB11007873BC48817BB97304
:10313000C07BF873386900900FCFFEF7F5FDDAF821
:103140003C004FF00A0BB0FBFBF10BFB1100A0B9E8
:10315000286880F0800028609AF811009AF82310FF
:1031600008449AF81510C91C88400101AC48C17286
:10317000016900910FC8FEF745F8DAF83C00C01E5F
:103180001721B0FBF1F201FB120050BBA549002052
:10319000FEF776FEA3490020091DFEF74DFEA14A69
:1031A000A148121DD178B1FBF6F3C372B1FBF6F35F
:1031B00006FB131101739178417311788173111F0C
:1031C0000A78C2734A780274897841749749096809
:1031D000296881F080012960016900910FC8FEF71C
:1031E00011F8DAF83C000527B0FBF7F107FB1100F6
:1031F00060B99AF8110048B1286880F08000286012
:103200008B48016900910FC8FDF7FCFF9AF8110087
:10321000884D012801D002281DD19AF81700D0B995
:103220009AF80100B8B19AF8030008B18AF8129030
:103230008AF803404FF400512846FEF7E0FB4FF4B4
:1032400000717D48FEF7DDFB80216A48FEF7D9FB5F
:1032500004208AF8110004212846FEF7C9FB774DA7
:1032600018B19AF8110098B121E09AF8110060B9EC
:10327000DAF83C00B0FBF7F107FB110028B9EC725B
:10328000286900900FCDFDF7BDFF8AF811400EE0D0
:103290009AF8140058B19AF8180040B985F80B90C4
:1032A000286900900FCDFDF7ADFF8AF81190624DAF
:1032B0009AF800101435C1B1BAF82600962814D82F
:1032C000401C80B2AAF826002821B0FBF1F201FBD5
:1032D00012022AB11430B0FBF1F201FB120088B9DE
:1032E000286880F0080028600CE0BAF826009728CB
:1032F00000D239B99AF81200032803D108214E48A8
:10330000FEF77FFB9AF812004FF0030910B1012875
:1033100036D11AE0BAF8280096280DD2401C80B2A7
:10332000AAF82800B0FBFBF10BFB1100F8B92868E4
:1033300080F00800286023E008213F48FEF761FB89
:10334000AAF828408AF812901AE0BAF82800B0F5D6
:10335000E16F0DD2401C80B2AAF82800B0FBF6F154
:1033600006FB110018B9286880F00800286007E003
:1033700008213148FEF745FBAAF828408AF8129048
:103380009AF80D0010B39AF80100F8B19AF802000B
:10339000E0B19AF806001E2818D800E04DE29AF82D
:1033A0000500282812D89AF8040028280ED89AF880
:1033B0000B0028280AD89AF80700282806D89AF877
:1033C0000800642802D8C8208AF815009AF824005A
:1033D000032871D19AF81900194E5546C1074AD0F1
:1033E000401E00EBD07040109FED168B252850D268
:1033F0002CE0000000180240000000000000E0BFC8
:10340000DC000020000000000000000000000000C0
:103410000000E03F0000000000005940A000002034
:103420008C000020540000201801002004280040D7
:10343000C800002000100240000C0240B400002030
:10344000001001400000000000002440DFE800F010
:103450001B22282E353B41474D535960666C84939F
:10346000A2B1C2C9D0EFF5FBEBEAE9E8E7E6E5E493
:10347000E3E2E1E0DF004108304600F0DBFA687E7D
:10348000401C687693E1EF4841793046253100F0E1
:10349000D1FA85E1297D3046253100F0CBFA7FE174
:1034A000697D3046253100F0C5FA79E1A97E3046C4
:1034B000253100F0BFFA73E17BE1697830462531B0
:1034C00000F0B8FA6CE1A9783046253100F0B2FA84
:1034D00066E1697A3046253100F0ACFA60E1E97FB7
:1034E0003046253100F0A6FA5AE1E97C3046253114
:1034F00000F0A0FA54E1A97A3046253100F09AFA9A
:103500004EE195F820103046253100F093FA47E15E
:10351000697D3046253100F08DFA41E1697C304605
:10352000253100F087FA3BE195ED100AF2EE040A2E
:1035300030EE600ADFEDC40A30EE200AF6EE000A33
:1035400020EE200ABCEEC00A10EE100AC1B22531EE
:10355000304600F06FFA23E1688EFCF7DCFF53EC95
:10356000182BFCF758FFFDF702F8C1B225313046A1
:1035700000F060FA14E1288EFCF7CDFF53EC182B15
:10358000FCF749FFFCF7F3FFC1B22531304600F0EC
:1035900051FA05E1E88DFCF7BEFF53EC182BFCF760
:1035A0003AFFFCF7E4FFC1B22531304600F042FAA1
:1035B000F6E0A88DFCF7AFFF9FEDA41B53EC112B99
:1035C000FCF729FFFCF7D3FFC1B22531304600F0EC
:1035D00031FAE5E095F821103046253100F02AFA5D
:1035E000DEE095F822103046253100F023FAD7E0CE
:1035F00094480A30C07920B19248C07908B10121BD
:1036000000E000212531304600F014FAC8E0BCE0AB
:10361000ADE09EE08FE082E073E064E055E048E0DA
:1036200039E02AE01BE014E00DE006E0FFE7E97E68
:103630003046253100F0FEF9B2E0297F30462531D1
:1036400000F0F8F9ACE0697F3046253100F0F2F97E
:10365000A6E0A97F3046253100F0ECF9A0E07948DA
:103660005A3090ED000ABCEEC00A10EE100AC1B24A
:103670002531304600F0DEF992E072484A3090ED94
:10368000000ABCEEC00A10EE100AC1B22531304665
:1036900000F0D0F984E06B483A3090ED000ABCEEBF
:1036A000C00A10EE100AC1B22531304600F0C2F94E
:1036B00076E098ED000ABCEEC00A10EE100AC1B226
:1036C0002531304600F0B6F96AE05E485A3090ED98
:1036D000010ABCEEC00A10EE100AC1B22531304614
:1036E00000F0A8F95CE057484A3090ED010ABCEEC2
:1036F000C00A10EE100AC1B22531304600F09AF926
:103700004EE050483A3090ED010ABCEEC00A10EE8F
:10371000100AC1B22531304600F08CF940E098ED36
:10372000010ABCEEC00A10EE100AC1B225313046C3
:1037300000F080F934E043485A3090ED030ABCEEC3
:10374000C00A10EE100AC1B22531304600F072F9FD
:1037500026E03C484A3090ED030ABCEEC00A10EE69
:10376000100AC1B22531304600F064F918E035483E
:103770003A3090ED030ABCEEC00A10EE100AC1B256
:103780002531304600F056F90AE098ED030ABCEE08
:10379000C00A10EE100AC1B22531304600F04AF9D5
:1037A000687E401CC0B268764A2800D16C7685F8E5
:1037B0002440DAF83C001E2831D19AF806001E2871
:1037C00001D98AF815909AF80500282802D9042012
:1037D0008AF815009AF80400282801D98AF815708B
:1037E0009AF80B00282802D906208AF815009AF8C2
:1037F0000700282802D907208AF815009AF808003F
:10380000282802D908208AF815009AF8250008B15E
:10381000401E00E000208AF82500CAF83C40012143
:103820000C4800F019F8DAF83C00401CCAF83C00DB
:103830009AF82400401C8AF824000DB0BDEC108BCF
:10384000BDE8F08F420200200000D84200000000D6
:1038500000000840000C0040C94301827047002965
:1038600004D0018841F0010101807047018821F0F6
:1038700001010180704702460020138A0B409289A3
:103880000A40002B02D0002A00D001207047002AF5
:1038900003D082890A438281704782898A43828168
:1038A0007047000030B50288164C174DA0420DD06D
:1038B000A8420BD0B0F1804F08D0144B984205D0ED
:1038C000134B984202D0134B984203D122F070035D
:1038D0004A881A43104B984206D0104B984203D0A6
:1038E00022F440730A891A4302804A68C2620A8835
:1038F0000285A04201D0A84201D1897A0186012126
:10390000818230BD000001400004014000040040FD
:1039100000080040000C004000100040001400406F
:103920003EB504460D4601210820FEF737F9019403
:10393000ADF800500020ADF80200ADF80800074CCB
:1039400069462046FFF7AEFF012211462046FFF7E9
:103950009EFF01212046FFF782FF3EBD000C004084
:10396000002904D0818941F4005181817047818907
:1039700021F40051818170477FB504460D46208AAD
:1039800020F44051E88808432082A08941F20C616C
:103990008843A9882A8911436A8902431143A18176
:1039A000A08A20F44071A8890843A0826846FEF7E7
:1039B0001FF91E48844202D01D48844201D1039859
:1039C00000E00298A189090408D500EBC00101EBD1
:1039D000001029684900B0FBF1F007E000EBC001DE
:1039E00001EB001029688900B0FBF1F06422B0FB04
:1039F000F2F109010B096FF018056B4300EB83002E
:103A0000A3891D044FF0320307D503EBC000B0FBC0
:103A1000F2F000F00700084306E003EB0010B0FBF3
:103A2000F2F000F00F00084320817FBD001001403C
:103A300000140140C1F308018180704703B401986C
:103A40004100009850EAC12018BF04204A0D18BF59
:103A500040F0010040F2FF72B2EB515F08BF40F04E
:103A60000200012808BF052002B0704700000000D6
:103A70002DE9F04D2DED040B2DED0E8B96B0DDE90B
:103A80002550279CDDF890A025F0004624F0004842
:103A9000BAF1000F14BF0121002101EB4502FC49DE
:103AA00053184A1093422AD3002814BF012300233D
:103AB00003EB44030B44F7498B4220D358EA00013F
:103AC0009FEDF59B76D0DFF8D8B35D4503D1BAF111
:103AD000000F05D188E0BAF1000F08BF002100D027
:103AE000012101EB450111F5001F08D8002814BF82
:103AF0000121002101EB440111F5001F0BD99DEDBF
:103B0000261B9DED240B16B0BDEC0E8B04B0BDE85A
:103B1000F04D00F069BE0027002DBCBFE14988458B
:103B200021DAE1498845A8BF02271CDAC3451ADC1F
:103B3000DE4901EB2851142908DDC1F1340220FAD5
:103B400002F101FA02F282420DD108E058B9C1F146
:103B5000140228FA02F101FA02F2424503D101F0FF
:103B60000101C1F1020756EA0A0124D1002C22DA30
:103B7000002D18BF022F01D0012F0AD0022000F023
:103B80007FFE16B0BDEC0E8B04B0BDE8F04D00F02A
:103B900013BE022000F074FE00F00EFE51EC100B7C
:103BA00081F0004141EC100B16B0BDEC0E8B04B05F
:103BB000BDE8F08D18E09FEDBEAB9FEDBF8B0028F8
:103BC00071D1B848804522D105F1804010F58010B0
:103BD00008BFBAF1000F07D0B3450ADC002CA8BF1C
:103BE0009DED260BE0DA0DE0B0EE490AF0EE690A31
:103BF000DAE7002C06DA9DED260B51EC100B81F074
:103C000000416FE0AE48784490ED000BCCE7D8451A
:103C10004DD1002C48DA2EB186423AD1BAF1000FCC
:103C200042D126E0BAF1000F13D0022000F028FEA6
:103C300000F0F6FD8DED020B9DED240B8DED000BDC
:103C400010EE900A039961F31E0003909DED020BA4
:103C5000AAE78DED02AB9DED240B1AEE901A10EE43
:103C6000900A8DED000B61F31E0003909DED020B99
:103C70009AE78DED028B9DED240B18EE901A10EE55
:103C8000900A8DED000B61F31E0003909DED020B79
:103C90008AE709DA9DED240B51EC190B53EC102B3C
:103CA000FCF7B9FB1EE020E09DED240B7CE786428B
:103CB0001BDAB4F1804F0DD0A4F10050B0F1FF50E9
:103CC00013D1002D11DB9DED240B51EC100B00F0F6
:103CD0007FFE07E09DED240B53EC102B51EC100BF5
:103CE00000F0C2BC41EC100B5EE79DED240B51ECE3
:103CF000100B00F0CBFDBAF1000FCDE90E0142D15F
:103D00009FED710B46B3A6F1E040B0F17F600CD09F
:103D10005E4538D1002D00DAA7B3022F0CBF012079
:103D20004FF0FF30FCF7E6FBDCE7002D01DD002C57
:103D30000DDA002D01DD002C1FDB002D16DA002C22
:103D400014DB012F08BF9FED620B3FF42DAFB0EEE7
:103D50004A0AF0EE6A0A27E7022F18BF002D0CD09E
:103D6000012F0AD1002DFFF61FAF06E0002DB8BFCE
:103D7000002C08DA012F3FF417AFB0EE480AF0EE3E
:103D8000680A11E71BE0012000EBE57050EA07012B
:103D900015D0791EB0EE498AF0EE698A084308BF53
:103DA0009FED4D8B4E480025804570DD4D494E48B6
:103DB000884514DDB0420DDB002C19DB2FE001201B
:103DC00000F05EFD16B0BDEC0E8B04B0BDE8F04D0A
:103DD00000F016BDB34502DC002C09DC1FE0864272
:103DE00002DA002C1BDA03E05E452BDD002C16DD29
:103DF000022000F045FD00F013FD8DED020B53ECA9
:103E00001A2B51EC180BFCF794FACDE90001039939
:103E1000019861F31E0003909DED020BC4E60220A1
:103E200000F02EFD00F00CFD10EE901A18EE900A36
:103E30008DED020B8DED008B61F31E0003909DED67
:103E4000020BB1E69DED0E0B53EC192B51EC100B50
:103E5000FCF769FA9FED260BCDE9080153EC102B16
:103E60009DED080B51EC100BFCF763FA9FED221B44
:103E700053EC112BFCF75AFA9DED081B53EC112B58
:103E8000FCF757FA9FED1E1B53EC112B3CE08CE026
:103E9000FFFF1F00FFFF0F00000000000000F03FC9
:103EA0000000F03F0000F07F0000404301FCFFFFF6
:103EB000000000000000F07F000000000000000093
:103EC000BE0E0000000000000000000000000080A6
:103ED000000000000000F0FF000000000000F0BF44
:103EE0000000E0410000F043FFFFEF3F0000000052
:103EF000000000000000D03F555555555555D53FA1
:103F0000000000000000E03FFCF710FA9DED080BF8
:103F100041EC1A0B53EC102B51EC100BFCF709FA87
:103F200053EC1A2BFCF705FA41EC1A0B9FEDFE0B34
:103F300053EC102B9DED080B51EC100BFCF7F9F92D
:103F400041EC1B0B9FEDFA0B51EC1A0B53EC102BB1
:103F5000FCF7EFF941EC1A0B9FEDF70B53EC102B2C
:103F60009DED080B51EC100BFCF7E3F953EC1A2B09
:103F7000FCF7D9F941EC1A0B51EC1B0B53EC1A2B43
:103F8000FCF730F90690CDE906519DED060B53EC98
:103F90001B2B51EC100BFCF7C6F953EC1A2BFCF75A
:103FA000C5F941EC100B00F0A1B90020B6F5801F57
:103FB0000EDA9FEDE30B53EC102B9DED0E0B51EC45
:103FC000100BFCF7B6F9CDE90E016FF034000E4688
:103FD00000EB2650A0F2FF37C6F31300DA4940F099
:103FE0007F6646F040568842D8BF002408DDD74996
:103FF0008142C8BF012403DC0024A6F580167F1C83
:10400000D348784400EBC4000F9690ED00CB9DEDB3
:104010000E0B53EC1C2B51EC100BFCF784F99DEDAF
:104020000E0B41EC1B0B53EC1C2B51EC100BFCF753
:10403000D9F841EC100B51EC190B53EC102BFCF799
:10404000EAF941EC1D0B51EC1B0B53EC1D2BFCF75B
:1040500070F941EC1A0BBF488DED10AB7844109508
:1040600090ED000B4FF0005040EA660000EB8440FA
:104070008DED080B00F5002009909DED080B53EC29
:104080001C2B51EC100BFCF74EF99DED0E1B53EC65
:10409000112BFCF74BF941EC100B53EC102B9DED61
:1040A000100B51EC100BFCF744F99DED080B41ECA3
:1040B0001C0B53EC102B9DED100B51EC100BFCF76F
:1040C00038F953EC1B2BFCF731F953EC1C2BFCF7A4
:1040D0002AF953EC1D2BFCF72CF941EC1C0B53EC8B
:1040E0001A2B51EC1A0BFCF724F941EC1B0B9A48E4
:1040F0000621B0EE4B0AF0EE6B0A784400F0E0FACD
:10410000B0EE401AF0EE601AB0EE41DAF0EE61DA8D
:1041100053EC1B2B51EC1B0BFCF70BF953EC1D2B39
:10412000FCF707F99DED100B41EC1B0B53EC1A2B20
:1041300051EC100BFCF756F853EC1C2BFCF7F9F87C
:1041400053EC1B2BFCF74EF89DED100B41EC1B0BB9
:1041500053EC102B51EC100BFCF7EBF841EC1D0B62
:104160009FED7FEB53EC1E2BFCF73CF853EC1B2B25
:10417000FCF738F80890CDE908519DED080B53EC99
:104180001E2B51EC100BFCF7CEF853EC1D2BFCF75B
:10419000CAF853EC1B2BFCF7C9F89DED080B41EC5A
:1041A0001D0B53EC102B9DED100B51EC100BFCF77D
:1041B000C0F841EC1B0B53EC1A2B51EC1D0BFCF718
:1041C000B8F89DED080B41EC1A0B53EC102B51EC99
:1041D0001C0BFCF7AEF853EC1A2BFCF703F841EC80
:1041E0001A0B51EC1B0B53EC1A2BFBF7FBFF0C903B
:1041F000CDE90C519DED0C0B53EC1B2B51EC100B2E
:10420000FCF791F853EC1A2BFCF790F841EC1B0BE0
:104210009FED550B53EC102B9DED0C0B51EC100B3F
:10422000FCF787F841EC1A0B9FED510B51EC1B0B7F
:1042300053EC102BFCF77DF841EC1B0B9FED4E0B64
:1042400053EC102B9DED0C0B51EC100BFCF771F89F
:1042500053EC1B2BFBF7C6FF41EC100B484878448E
:1042600000EBC40090ED001B51EC100B53EC112B34
:10427000FBF7B8FF41EC1B0B3846FCF73BF9CDE9E7
:10428000080153EC1B2B51EC1A0BFBF7ABFF41EC75
:10429000100B3C48784400EBC40090ED00CB51EC8F
:1042A000100B53EC1C2BFBF79DFF9DED081B53ECF3
:1042B000112BFBF797FF0690CDE906519DED080BFA
:1042C00053EC102B9DED060B51EC100BFCF72BF86B
:1042D00053EC1C2BFCF727F853EC1A2BFCF723F8B4
:1042E00053EC1B2BFCF722F841EC100B9DED261B29
:1042F00053EC102B8DED001B00959DED260B51EC22
:10430000100BFCF716F89DED000B41EC1A0B53EC6B
:10431000102B9DED260B51EC100BFCF704F89DEDD6
:10432000061B53EC112B2FE0000000604715F73FF0
:10433000FE822B654715F73F44DF5DF80BAE543E18
:1043400000000000000040438E9803007AB60B0086
:104350003A0A0000680A000072090000000000002C
:104360000000000000000840000000E009C7EE3F28
:10437000FD033ADC09C7EE3FF5015B14E02F3EBEBA
:10438000FE070000B8070000FBF7D3FF53EC1A2B21
:10439000FBF728FF9DED060B41EC1A0B53EC102B9D
:1043A0009DED000B51EC100BFBF7C3FFCDE90C01A9
:1043B0009DED0C0B51EC1A0B53EC102BFBF712FF7D
:1043C000CDE902010C46AA498C422FDB611A084351
:1043D00018D19DED0C0B53EC102B9DED020B51EC05
:1043E000100BFBF7A0FF41EC1B0B9FEDA30B51EC57
:1043F0001A0B53EC102BFBF7F5FE53EC1B2BFCF7C1
:10440000E7F82DD2022000F03BFA00F009FA10EE96
:10441000901A18EE900A8DED020B8DED008B61F372
:104420001E0003909DED020BFFF7BEBB944A24F0E3
:104430000041914214D39349214408437FF4EFACE7
:104440009DED0C0B53EC102B9DED020B51EC100B62
:10445000FBF769FF53EC1A2BFCF7BAF87FF6DFACD9
:1044600024F000408849894A002601EB205182420D
:104470002BDA481C4FF4801121FA00F02044844AC2
:10448000C0F30A517A44A1F2FF3192ED000B814A48
:104490008DED080BCA4020EA0202C0F3130040F47D
:1044A0008010C1F1140120FA01F60992002CB8BF66
:1044B00076429DED080B53EC102B9DED0C0B51EC4F
:1044C000100BFBF730FFCDE90C019DED0C0B51EC0F
:1044D0001A0B53EC102BFBF785FE9FED6F0B08902A
:1044E000CDE9085153EC102B9DED080B51EC100B4E
:1044F000FBF71FFF41EC1B0B9FED690B53EC102BDF
:104500009DED080B51EC100BFBF713FF9DED0C0B11
:1045100041EC1C0B53EC102B9DED080B51EC100BD8
:10452000FBF701FF53EC1A2BFBF700FF9FED5E1B1F
:1045300053EC112BFBF7FDFE53EC1C2BFBF752FE4B
:1045400041EC1A0B51EC1B0B53EC1A2BFBF74AFEF8
:10455000CDE902019DED020B53EC1B2B51EC100B2E
:10456000FBF7E1FE53EC1A2BFBF7E0FE9DED020B8F
:1045700041EC1A0B53EC102B51EC100BFBF7D9FE4E
:10458000CDE908014A489DED080B0521784400F06B
:1045900097F89DED081B51EC100B53EC112BFBF71A
:1045A000C8FE9DED021B53EC112BFBF7BFFECDE9BE
:1045B00006019DED020B53EC1A2B51EC100BFBF78F
:1045C000B8FE53EC1A2BFBF70DFE9FED3B0B41ECB5
:1045D0001A0B53EC102B9DED060B51EC100BFBF757
:1045E000A2FE9DED060B41EC1B0B53EC102B9DED39
:1045F000020B51EC100BFBF79CFE53EC1B2BFBF753
:104600000AFF53EC1A2BFBF78EFE9DED021B53ECB9
:10461000112BFBF788FE53EC192BFBF787FECDE936
:10462000020101EB065001150029C8BF039015DCFB
:104630009DED020B324651EC100BFCF7C2F8FFF770
:10464000FDF9042808BF00F0FBF832469DED020B8F
:1046500051EC100BFCF7B5F8CDE902019DED020B12
:1046600051EC180B53EC102BFBF763FEFFF73ABB32
:104670000000904000000000FE822B654715973C2B
:1046800000CC904000346F3F01FCFFFF0000E03F92
:1046900040060000FFFF0F0000000000432EE63F31
:1046A000396CA80C615C20BEEF39FAFE422EE63F61
:1046B00010050000000000000000000000000040A5
:1046C00070B504462DED028B4D1E00EBC500B0EE1B
:1046D000408AF0EE608A90ED000B35F0060017D0AE
:1046E00053EC182B51EC100BFBF723FE41EC100B95
:1046F0006D1E04EBC50090ED001B51EC100B53EC4C
:10470000112BFBF76FFD41EC100B35F00600E7D1E4
:10471000022D36D0042D1CD0062D1CBFBDEC028B03
:1047200070BD53EC182B51EC100BFBF702FE94ED0F
:104730000A1B53EC112BFBF755FD53EC182BFBF721
:10474000F8FD94ED081B53EC112BFBF74BFD41ECEE
:10475000100B53EC182B51EC100BFBF7EAFD94ED0A
:10476000061B53EC112BFBF73DFD53EC182BFBF70D
:10477000E0FD94ED040B53EC102BFBF733FD41EC03
:10478000100B53EC182B51EC100BFBF7D2FD94EDF2
:10479000021B53EC112BFBF725FD53EC182BFBF7F9
:1047A000C8FD94ED001B53EC112BFBF71BFDBDEC7A
:1047B000028B41EC100B70BD9FED070B10B553EC55
:1047C000102B9FED070B51EC100BFBF724FE41EC77
:1047D000100B10BD000000000000000000000000F1
:1047E000000000000000F03F10B553EC112B51EC1D
:1047F000100BFBF7F7FC41EC100B10BD00000000A4
:104800009FED050B10B553EC102B51EC100BFBF783
:1048100002FE41EC100B10BD000000000000000083
:104820009FED050B10B553EC102B51EC100BFBF763
:1048300080FD41EC100B10BD000000000000007076
:104840009FED050B10B553EC102B51EC100BFBF743
:1048500070FD41EC100B10BD0000000000000010C6
:1048600002E008C8121F08C1002AFAD17047704739
:10487000002001E001C1121F002AFBD17047000097
:104880000149086070470000F801002082B0CDE9BE
:10489000000121F0004001909DED000B02B051ECB1
:1048A000100B704730B40D4B40F2E2440C48DA8DE7
:1048B0004FF48071A24204D90122DA7430BCFDF7B2
:1048C0009EB8B2F57A7F07D21A7C002A04D0002263
:1048D000DA7430BCFDF795B830BC7047100000208A
:1048E00000180240FCF71CFAFCF7F6FB532142F2D9
:1048F0000F70FFF715F8FCF779F8FCF775FFFDF777
:10490000A1F8FCF7F3F9FCF7D3F9FCF759F9FCF738
:1049100097F9FCF76BF9FDF701FCFDF7BBF8FDF724
:1049200081F8FDF736FA0C4C01212046FDF767F8B7
:104930000A4DA1152846FDF764F84FF400510848C8
:10494000FDF75DF861152046FDF759F880212846EE
:10495000FDF755F8FEE70000000C02400018024089
:1049600000100240F0B50B30154D20F00701002477
:10497000144A0FE003688B420BD38B4205D95E1AB1
:1049800043184768C3E9006700E04368136002C04A
:1049900004E0021D10680028ECD12046002802D156
:1049A000286808B10020F0BD064A07481060074A91
:1049B000121A22F00702C0E9002401202860D7E77C
:1049C000F4010020F0010020B4020020B004002017
:1049D00000B52DED048B83B041EC190BFBF71AFFEA
:1049E00041EC180B18EE100A18EE901A8DED008BA2
:1049F000002818BF0120084320F00040C0F17F606C
:104A000000F1E040C00F14D019EE101A19EE900A10
:104A10008DED009B002918BF0121084320F00040C4
:104A2000C0F17F6000F1E040C00F04BF0120FFF73C
:104A300027FF51EC180B03B0BDEC048B00BD000048
:104A4000000000000000F03F000000000000F83F00
:104A500000000000000000000000004003B8E23F3A
:104A6000000000000000000006D0CF43EBFD4C3EEC
:104A7000033333333333E33FFFAB6FDBB66DDB3FE1
:104A80004D268F515555D53F01411DA96074D13F29
:104A900065DBC9934A86CD3FEF4E454A287ECA3F23
:104AA0003E5555555555C53F93BDBE166CC166BFA5
:104AB0002CDE25AF6A56113FF16BD2C541BDBBBE9E
:104AC000D0A4BE726937663E0000000000000000FE
:104AD000F04A000800000020FC010000B6080008B1
:104AE000A84B0008FC010020B40600007048000834
:104AF0001200012005010203040420090607080929
:104B00000001030114230002193009010001000310
:104B10000000C826312B110E2004000009050333C4
:104B20005900012208542174410411113106120068
:104B30006812561921041125712F4332020481286D
:104B400040050000390404214DF3027914031002DA
:104B5000032853510414438501042164520714436C
:104B6000840104A11443860304113C6314122842F7
:104B70000204A1A043860204A11443830204A128D5
:104B800043850204A13C43880204A114439002041B
:104B9000A12843870204A12843890204A52CC554F7
:084BA00027050654011A01006B
:040000050800018965
:00000001FF
