:020000040800F2
:10000000A00400209D010008A5010008A701000828
:10001000A9010008AB010008AD01000800000000C4
:10002000000000000000000000000000AF01000818
:10003000B101000800000000B3010008B50100088C
:10004000B7010008B7010008B7010008B7010008B0
:10005000B7010008B7010008B7010008B7010008A0
:10006000B7010008B7010008B7010008B701000890
:10007000B7010008B7010008B7010008B701000880
:10008000B7010008B7010008B7010008B701000870
:10009000250C0008B7010008B7010008B7010008E7
:1000A000B7010008B7010008B7010008B701000850
:1000B000B7010008B7010008B7010008B701000840
:1000C000B7010008B7010008B7010008B701000830
:1000D000B7010008B7010008B7010008B701000820
:1000E000B7010008B7010008B7010008B701000810
:1000F000B7010008B7010008B7010008B701000800
:10010000B7010008B70100082D190008B701000861
:10011000B7010008B7010008B7010008B7010008DF
:10012000B7010008B7010008B7010008B7010008CF
:10013000B7010008B7010008B7010008B7010008BF
:100140005D0D0008B7010008B7010008B7010008FD
:10015000B7010008B7010008B7010008B70100089F
:10016000B7010008B7010008B7010008B70100088F
:10017000B7010008B7010008B7010008B70100087F
:10018000B7010008B7010008DFF80CD000F004FB4D
:1001900000480047C92A0008A004002006488047FC
:1001A00006480047FEE7FEE7FEE7FEE7FEE7FEE75C
:1001B000FEE7FEE7FEE7FEE7C1150008890100083B
:1001C0002DE9FE4F81EA030404F0004421F00041D0
:1001D00000944FF0000B23F0004350EA01045ED07E
:1001E00052EA03045BD0C3F30A54C1F30A552C440A
:1001F000A4F2F3340194A0FB0254C1F3130141F4BF
:100200008011C3F3130343F4801301FB024400FB8A
:10021000034E840A970A44EA815447EA8357A4FBB1
:10022000076802958D0A05FB07854FEA932C04FBAE
:100230000C542705029D4FEA065847EA1637B5EBDE
:1002400008056EEB070C870E920E47EA811742EA0B
:100250008312A7FB0201B6EB0B0164EB00042B0D2C
:1002600043EA0C335E1844EB1C50DA465146E7FB78
:100270000201C5F313044FEA0B3343EA14534FEA68
:100280000432019C43EA0603A4F10C040294009C8E
:10029000CDE900B400F05BF903B0BDE8F08F0020B9
:1002A0000146F9E72DE9F04D81EA030404F0004B23
:1002B00021F0004514464FF0000A23F0004150EAB7
:1002C000050220D054EA01021DD0C5F30A570246A8
:1002D000C5F31303C1F31300C1F30A5640F48015AC
:1002E00043F48013A7EB0608101BD64608F2FD382E
:1002F00073EB050002D308F1010801E092185B419D
:10030000B8F1000F03DA00200146BDE8F08D0020AF
:100310004FF48011064684460EE0171B73EB050769
:1003200005D3121B63EB050306434CEA010C490895
:100330004FEA300092185B4150EA0107EDD152EAD2
:10034000030012D082EA040083EA0501084305D0C5
:10035000101BAB4106D20122002306E000224FF021
:10036000004302E06FF0010253101AEB06004CEB61
:10037000085110EB0A0041EB0B01BDE8F04D00F015
:10038000D7B80EB5C10F80EAE0700844CA07002153
:1003900040F233438DE80E000A460B4600F0D7F8D2
:1003A00003B000BD00F0004230F000400AD0C10DA3
:1003B00001F56071C0F3160042EA0151C20840071E
:1003C00011437047002001467047000030B5041EFD
:1003D00071F1000404DB4FF00044404264EB010182
:1003E000141E73F1000405DB1C464FF0004352421B
:1003F00063EB04038B4208BF824230BD01F000432F
:1004000030B421F0004150EA010206D00A0DA2F5F5
:100410006072C1F31301002A02DC30BC0020704777
:10042000440F44EAC104C100E01830BC00EBC250E4
:1004300000F047B830B50B460146002020220124C9
:1004400009E021FA02F59D4205D303FA02F5491BA2
:1004500004FA02F52844151EA2F10102F1DC30BDB8
:100460002DE9F05F0546002092469B4688460646E9
:10047000814640241BE0284641464746224600F07C
:10048000ACF953465A46C01A914110D3114618464A
:10049000224600F093F92D1A67EB01084F462246D9
:1004A0000120002100F08AF917EB00094E41201EBF
:1004B000A4F10104DFDC484631462A464346BDE844
:1004C000F09F0029A8BF7047401C490008BF20F0DA
:1004D0000100704710B4B0FA80FC00FA0CF050EA4A
:1004E000010404BF10BC704749B1CCF1200421FACB
:1004F00004F411FA0CF118BF012121430843A3EBC6
:100500000C01CB1D4FEA00614FEA102042BF0020D2
:1005100010BC704700EBC35010440029A4BF10BCAE
:100520007047401C490008BF20F0010010BC704714
:1005300010B5141E73F1000408DA401C41F10001EB
:1005400092185B411A4301D120F0010010BD2DE942
:10055000F04D92469B4611B1B1FA81F202E0B0FA39
:1005600080F22032904600F029F904460F4640EA16
:100570000A0041EA0B0153465A46084313D011467C
:1005800053EA010019D0C8F14002504600F025F9A5
:1005900005460E4650465946424600F00FF90843BC
:1005A00005D0012004E020463946BDE8F08D00204A
:1005B000054346EAE0762C4337430A986305E40A8C
:1005C000A0EB08000022FD0A44EA47540A3002D595
:1005D00000200146E9E7010510196941DDE90845F8
:1005E00000196941BDE8F04DA2E72DE9FE4F8046B4
:1005F00081EA0300C00F0C46009021F0004123F077
:100600000045B8EB0200A94105D24046214690467C
:100610001C460B46024623F00040104347D0270DEE
:10062000C7F30A00C3F30A510290401A0190402810
:100630006BDAC3F3130040F4801B0098924620B19C
:100640000023D2EB030A63EB0B0B01985946C0F170
:100650004002504600F0B2F806460D465046594654
:10066000019A00F0CAF810EB08006141002487EA03
:10067000115284EAE7731A4340D0009A62B3019A98
:10068000012A4FEA075215DC001B61EB02014FF013
:10069000004202EA0752CDE90042001C41F58011F8
:1006A00032462B46FFF753FF03B0BDE8F08F4046BC
:1006B0002146F9E7001B61EB0201001C41F58013A4
:1006C00000185B412018A2F5001747EB030140EA30
:1006D000D570B6196D4111E06D084FEA360645EA4E
:1006E000C0754FEA0752001B61EB0201001C41F587
:1006F000801149084FEA30000019514132462B461B
:1007000003B0BDE8F04FFFF713BF0098012240008F
:100710000023D0EB020263EBE073009821464FEA1E
:10072000E074B8EB000061EB0401E9E783F00043FB
:100730005BE781F0004158E7C1F30A52C1F31301AE
:1007400040F2FF3341F480119A4202DA0020014660
:10075000704740F233439A42A2F2334202DC5242E3
:1007600000F03BB800F02AB830B5041E71F1000467
:1007700004DB4FF00044404264EB0101141E73F1AE
:10078000000405DB1C464FF00043524263EB0403B8
:10079000994208BF904230BD064C074D06E0E06824
:1007A00040F0010394E8070098471034AC42F6D3B8
:1007B000FFF7EEFCE82A0008082B0008202A04DBDB
:1007C000203A00FA02F1002070479140C2F1200364
:1007D00020FA03F3194390407047202A04DB203AA3
:1007E00021FA02F00021704721FA02F3D040C2F151
:1007F00020029140084319467047202A06DBCB1798
:10080000203A41FA02F043EAE07306E041FA02F3CB
:10081000D040C2F120029140084319467047002998
:1008200004D0816841F0010181607047816821F046
:10083000010181607047000010B5074C226807492C
:100840000A40D0E900131943D0E9023003431943A9
:100850001143216010BD000004230140E030FCFF83
:10086000002904D0816841F48071816070478168FB
:1008700021F4807181607047002904D0816841F4BF
:10088000007181607047816821F400718160704758
:100890007CB50121042000F09FFD00258DF8075054
:1008A0000120009003248DF80440114E6946304623
:1008B00000F005FD0121084600F08EFD8DF807507F
:1008C000102100918DF8044069460A4800F0F7FCB9
:1008D0000121042000F080FD8DF8075004200090D5
:1008E0008DF804406946304600F0E9FC7CBD00000C
:1008F000000802400000024010B5FFF7C9FFBDE844
:10090000104000F027B8000030B542680F4B1A4085
:100910000C790B6842EA04221343436083680C4A53
:100920001340D1E9034222434D798C6844EA4504DF
:1009300022431A438260C26A22F47002097D491E72
:10094000C9B242EA0151C16230BD0000FFFEFFFCA6
:10095000FDF7FFC0F0B599B00121880500F03CFD1E
:1009600001210E02304600F061FD03270E9700249E
:100970000A940D941594012516952C480C90179403
:1009800068031290C0101090139629480B90189489
:10099000C01411900F9480011490264E0AA930467D
:1009A00000F002FC0121304600F0F2FB04A800F048
:1009B00082F88DF81550089407948DF824700694E9
:1009C00004948DF814501A4D04A94C3D2846FFF7A5
:1009D0009BFF029400944FF4803101910394684688
:1009E000FFF72AFF022301220A21284600F024F8FB
:1009F00002231A460421284600F01EF8022303228F
:100A00000C21284600F018F801212846FFF734FF92
:100A100001212846FFF724FF01212846FFF7FFFEAA
:100A2000284600F043F819B0F0BD00006000002037
:100A30004C2001401064024070B5072609290AD9EC
:100A4000C568A1F10A0404EB4404A640B543A340E1
:100A50001D43C56007E0056901EB4104A640B543AD
:100A6000A3401D4305611F23072A09D2446B521E70
:100A700002EB820293409C4391400C43446370BD5F
:100A80000D2A09D2046BD21F02EB820293409C43D1
:100A900091400C43046370BDC46A0D3A02EB8202BC
:100AA00093409C4391400C43C46270BD816841F007
:100AB0008041816070470021016001714171816056
:100AC000C16001610121017570470000F0B58BB074
:100AD0000121084600F080FC3D4F09220B213846D9
:100AE00000F02BFC09220C21384600F026FCB8143B
:100AF000099002268DF828608DF8296000248DF871
:100B00002A4001258DF82B5009A9384600F0D7FB63
:100B1000E80209908DF8286009A9384600F0CFFB5B
:100B20004FF4C06000F04EFC14208DF820008DF8CA
:100B300021508DF822408DF8235008A800F00EFCBB
:100B40000121480600F056FC224E304600F010F914
:100B500005A800F06EFA8DF81A408DF81B508DF83C
:100B60001C508DF81D408DF81E408DF81F408DF8EB
:100B700016408DF8175003208DF818008DF8195085
:100B80000620ADF8140005A9304600F081F90E20CA
:100B90008DF80E008DF80F408DF81050ADF8044020
:100BA00049F6A400ADF806004FF6FF71ADF8081045
:100BB000ADF80A10ADF80C408DF8115001A800F006
:100BC000F3F801220221304600F058F90BB0F0BDD5
:100BD00000000240006400400FB42DE9F041DDE95F
:100BE0000B0100248DF824008DF825100C4F06A968
:100BF000384600F02EFA064640F6FF7500E0641C09
:100C00003146384600F080FA08B9AC42F7DBAC4216
:100C100004DB0020BDE8F0015DF814FB0120F9E7DA
:100C20000064004010B50021064800F0B3F9002828
:100C300006D1BDE81040044A0021044800F0B8B9CC
:100C400010BD000000680040240000200064004047
:100C5000F0B58BB00121022000F0BEFB3D4F092210
:100C60000C21384600F069FB09220D21384600F0BE
:100C700064FB4FF40050099002268DF828608DF82F
:100C8000296000248DF82A4001258DF82B5009A9F0
:100C9000384600F014FB280309908DF8286009A954
:100CA000384600F00CFB4FF4C06000F08BFB402096
:100CB0008DF820008DF821408DF822408DF82350CA
:100CC00008A800F04BFB0121880600F093FB224EA0
:100CD000304600F04DF805A800F0ABF98DF81A4049
:100CE0008DF81B508DF81C508DF81D408DF81E405E
:100CF0008DF81F408DF816408DF8175003208DF8A1
:100D000018008DF819500620ADF8140005A93046DA
:100D100000F0BEF80E208DF80E008DF80F408DF813
:100D20001050ADF8044049F6A400ADF80600ADF847
:100D30000840ADF80A40ADF80C408DF8115001A8FC
:100D400000F032F801220221304600F097F80BB093
:100D5000F0BD00000004024000680040024A00218B
:100D6000024800F025B9000024000020006800407F
:100D700010B50C4988420AD101214C06204600F0EA
:100D800047FB2046BDE81040002100F041BB012197
:100D90008C06204600F03CFB2046BDE810400021B8
:100DA00000F036BB00640040F0B5827A012191402A
:100DB000304C226842F0010222602E4D1C352A6818
:100DC0008A432A602B4A067B0C322B4B002E14D10F
:100DD00016688E4316604688C78846EA0746877AB3
:100DE00003EBC707C7F840660688878846EA0746C8
:100DF000877A03EBC707C7F84466067B012E14D138
:100E000016680E4316604288068842EA0642867AD1
:100E100003EBC606C6F84026C288868842EA064228
:100E2000867A03EBC603C3F84426124AC37A121D1E
:100E30003BB113680B4313600E4A0389143223B18C
:100E400006E013688B431360F6E713688B43136067
:100E50000389012B02D113680B431360407B0128E7
:100E600002D1286808432860206820F00100206033
:100E7000F0BD00000066004000600040002A03D082
:100E800042690A434261704742698A43426170473E
:100E900010B50022036823F002030360036843F0E7
:100EA000010303604FF6FF7300E0521C4468E4073F
:100EB00001D19A42F9D14268D2073ED08A79012AFB
:100EC0003DD0026822F080020260CA79012A3BD03C
:100ED000026822F0400202600A7A012A39D00268D0
:100EE00022F0200202604A7A012A37D0026822F0FA
:100EF000100202608A7A012A35D0026822F00802C4
:100F00000260CA7A012A33D0026822F00402026029
:100F10008A78CC78920742EA04620C7942EA044269
:100F20004C79098842EA0452491E0A43C2610168A9
:100F300021F001010160002120E0002010BD0268C5
:100F400042F080020260C0E7026842F040020260A4
:100F5000C2E7026842F020020260C4E7026842F081
:100F600010020260C6E7026842F008020260C8E7A9
:100F7000026842F004020260CAE7491C4268D207D4
:100F800001D09942F9D14068C00701D0002010BDBE
:100F9000012010BD02460020002905D0012902D100
:100FA000106900F003007047D06800F0030070473C
:100FB00010B500EB0113D3F8B04104F0040414722F
:100FC000002C2CD0D3F8B041E408546003F5D8735A
:100FD0001C6804F0020454725C6804F00F049472FC
:100FE0005C68240AD4749C68D4729C68240A1473C4
:100FF0009C68240C54739C68240E9473DC68D4732E
:10100000DC68240A1474DC68240C5474DB681B0E3E
:10101000937449B1016941F02001016110BDD3F819
:10102000B041640D1460D1E7C16841F02001C16096
:1010300010BD00218171C171017241728172C17252
:101040008170C17003210171022141710121018070
:10105000704730B50246002093685B010AD490685F
:10106000000101D5012005E09068C00001D50220F3
:1010700000E0042004283BD002EB0012D2F88031BB
:1010800003F00103C2F880310B7A93B3D2F88041A8
:101090004D681C434B7A43EAC5031C43C2F88041A8
:1010A0008B7A03F00F038B7202F5C072536823F042
:1010B0000F03536053688C7A23435360CB7A8C7B45
:1010C0000D7B43EA04634C7B240444EA0524234358
:1010D0009360CB7B8C7C43EA04634C7C097C2404C6
:1010E00044EA01210B43D360116841F00101116012
:1010F00030BDFFE7D2F880314C7A23430C8843EAB5
:101100004453C2F88031CBE70022002904D00129E2
:1011100006D002290BD107E082681848024006E099
:1011200082681748024002E0826816480240164969
:10113000501A8A4218D007DC92B16FF08060101804
:1011400010D0022809D113E0B0F5007F12D00F496A
:1011500040180BD0B0F5003F0ED00020C0B2704751
:101160000220FBE70020F9E70020F7E70020F5E781
:101170000120F3E70120F1E70120EFE7030000047D
:101180000003000800000310000100080001FFF741
:10119000002904D0016841F0010101607047016835
:1011A00021F001010160704730B50368124A134015
:1011B000CC680A682243D1E905452C432243CC6917
:1011C00022430C6A22434C6A22438C6A22434C6BB2
:1011D00022438C6B22431A430260426922F00703C8
:1011E000D1E90B2422431A4342610A6942604A68EA
:1011F00082608968C16030BD3F801CF070B586B0E8
:101200000121084600F0E8F80121102000F00EF955
:101210001E4E07220A21304600F08FF807220921CE
:10122000304600F08AF800248DF8164001208DF831
:10123000170002258DF81450410204918DF81550C5
:1012400004A9304600F03BF88DF814506802049071
:1012500004A9304600F033F84FF4E1300090ADF8C7
:101260000440ADF80640ADF80840ADF80C400C2045
:10127000ADF80A00064C6946204600F037FF012110
:10128000204600F01FFF06B070BD000000000240C5
:101290000010014010B54EF660240021204600F0F9
:1012A000E3FA0021204600F081FA0021204600F0F8
:1012B000B7FC2046BDE81040002100F015BA2DE92A
:1012C000F041002201274FF0030C07FA02F50B68EA
:1012D0002B40AB422CD1066853000CFA03F4A64312
:1012E00006600E79D0F800809E4046EA0806066047
:1012F0000E79012E01D0022E12D18668A643866097
:101300004E79D0F808809E4046EA08068660466816
:10131000AE43466045688E799640B6B23543456027
:10132000C568A543C560CC799C40C3681C43C460B4
:10133000521C102AC9D3BDE8F08110B54B07DB0E53
:101340009A40C90800EB8100016A0F249C40A14328
:101350000162016A1143016210BD000030B50F2324
:10136000C27801250178002A1FD0154A126802F4BC
:10137000E062C2F5E062C2F30722C2F10404D34086
:101380004278A24084781C401443220101F1E021FC
:1013900081F80024007800F01F018D404009800092
:1013A00000F1E020C0F8005130BD01F01F00854081
:1013B0004809800000F1E020C0F8805130BD0000F5
:1013C0000CED00E002490843024908607047000044
:1013D0000000FA050CED00E0054A002903D0116871
:1013E000014311607047116881431160704700002C
:1013F00030380240054A002903D0116801431160CA
:101400007047116881431160704700004038024006
:10141000054A002903D01168014311607047116823
:10142000814311607047000020380240054A0029BE
:1014300003D0116801431160704711688143116046
:101440007047000044380240054A002903D0116863
:1014500001431160704711688143116070470000BB
:101460002438024070B5244B196801F00C01234C5C
:1014700000291ED0224E04291DD008291DD0046049
:10148000196801F0F00109091E4A545C0168E14045
:1014900041601C6804F4E054A40A145D21FA04F4C9
:1014A00084601B6803F460435B0BD25CD140C16075
:1014B00070BD0460E4E70660E2E70F4A121F11689E
:1014C000C1F38055116801F03F0135B1B6FBF1F170
:1014D0001468C4F38814614305E0B4FBF1F11468A7
:1014E000C4F3881461431268C2F30142521C5200D3
:1014F000B1FBF2F10160C3E7083802400024F400B8
:1015000040787D01000000200CB50022019200927D
:101510002749086840F4803008604FF4A043086809
:1015200000F4003000900198401C0190009810B920
:1015300001989842F3D10868800302D501200090F9
:1015400000E000920098012831D11948403002682B
:1015500042F0805202601748026842F44042026042
:101560001348083002680260026842F400420260D8
:10157000026842F4A0520260021F0F4B13600A6817
:1015800042F080720A600A689201FCD50B4A40F270
:1015900005711160016821F003010160016841F0EB
:1015A000020101600168C1F381010229FAD10CBD79
:1015B000003802400070004008544007003C0240E0
:1015C00010B51248016841F47001016010480168CB
:1015D00041F0010101600E4A0021083211600268E9
:1015E0000C4B1A400260031D0B4A1A60026822F479
:1015F0008022026006480C300160FFF785FF034936
:101600004FF000608039086010BD000088ED00E0F8
:1016100000380240FFFFF6FE1030002470B5048C45
:1016200024F001040484058B048C25F0F3054FF6A7
:10163000FF7606EA031313432B4324F00A020A43FE
:1016400042F001010383018470BD70B5048C24F065
:1016500010040484058B068C4FF6FF7404EA011114
:1016600025F4734504EA03332B4304EA02221A43A8
:1016700026F0A0030B4343F010010283018470BDE8
:10168000F0B5048C24F480740484868B058C4FF6AA
:10169000FF7707EA012426F0F30607EA0311114356
:1016A000314325F42062224342F480728183028414
:1016B000F0BD70B5048C24F480540484858B068CB2
:1016C0004FF6FF7404EA013125F4734504EA02225F
:1016D0002A4304EA0333134326F420420A4342F424
:1016E00080518383018470BD70B588B005460C4677
:1016F00001210846FFF79AFE01211020FFF76CFE3A
:101700004FF42060069003208DF81D0002208DF814
:101710001C0001208DF81E008DF81F00214E06A927
:101720003046FFF7CCFD012209213046FFF705FEC8
:1017300001220B213046FFF700FE1B4E304600F021
:10174000E3FA03A800F086FCADF80C4004950024F1
:10175000ADF80E40ADF814408DF8164003A93046A0
:1017600000F03AFC00231A460321304600F0A2FBA9
:10177000684600F0F5FBADF808406946304600F0D9
:10178000BEFB0121304600F0ADFA01221146304681
:1017900000F0EEFB74620121304600F0A9FA08B0B7
:1017A00070BD0000001002400000014070B588B01C
:1017B00005460C4601210846FFF71CFE012108469C
:1017C000FFF70AFE0C20069003208DF81D00022072
:1017D0008DF81C0001208DF81E008DF81F00214E91
:1017E00006A93046FFF76BFD012202213046FFF7C4
:1017F000A4FD012203213046FFF79FFD760330460A
:1018000000F082FA03A800F025FCADF80C40049526
:101810000024ADF80E40ADF814408DF8164003A931
:10182000304600F0D9FB00231A460321304600F071
:1018300041FB684600F094FBADF80840694630462D
:1018400000F05DFB0121304600F04CFA0122114608
:10185000304600F08DFB74620121304600F048FAFA
:1018600008B070BD0000024070B588B005460C4657
:1018700001210220FFF7BEFD01210846FFF7ACFD64
:10188000C020069003208DF81D0002208DF81C005A
:1018900001208DF81E008DF81F00224E06A930464B
:1018A000FFF70DFD022206213046FFF746FD02221A
:1018B00007213046FFF741FD1B4E304600F024FA69
:1018C00003A800F0C7FBADF80C4004950024ADF868
:1018D0000E40ADF814408DF8164003A9304600F0D4
:1018E0007BFB00231A460321304600F0E3FA6846EA
:1018F00000F036FBADF808406946304600F0FFFACC
:101900000121304600F0EEF901221146304600F088
:101910002FFB0548243004600121304600F0E8F92F
:1019200008B070BD00000240000400402DE9F04105
:101930002DED068B84B00121DFF85082404600F087
:10194000D2FA0027924C012850D1A068401CA06018
:1019500000F00700032849D2DFE800F00249D00078
:101960008C48018800EE101AB8EE400ADFED8A0AB2
:1019700020EE200A9FED891A894D20EE010A85ED9F
:10198000000A418801EE901AF8EE611A61EEA01A81
:1019900061EE811AC5ED011A808801EE900AF8EE19
:1019A000611A61EEA00A60EE810AC5ED020A10EE2E
:1019B000100AFEF7F7FC41EC100B7AA053EC102B49
:1019C00000F0F6FB6868FEF7EDFC41EC100B7BA025
:1019D00053EC102B00F0ECFBA868FEF7E3FC41ECA5
:1019E000100B7CA053EC102B00F0E2FBC0E07F4812
:1019F000006820807E4D686A60807C4847F23056DF
:101A00003146243800F0BEFA3146284600F0BAFAD2
:101A10000320634D143DA5F1140605EB800191ED03
:101A2000000A411C05EB810282ED000A06EB8002F0
:101A300006EB810192ED000A81ED000A401E0028AC
:101A4000EBDA2088A0F5EA403038FEF79AFC9FEDEB
:101A5000698B53EC182BFEF7B3FB9FED689B53EC9F
:101A6000192BFEF71FFCFEF7C9FC0AEE100A86EDE3
:101A700000AA6088A0F5EA403038FEF782FC53ECFB
:101A8000182BFEF79DFB53EC192BFEF70BFCFEF712
:101A9000B5FC00EE100A85ED000AD5ED010A30EE26
:101AA000200AD5ED020A30EE200AD5ED030A30EE09
:101AB000200AD5ED040A70EE200A9FED520A20EEAE
:101AC000801AF1EE040AC1EE201AC4ED031A96ED55
:101AD000011AD6ED021A3AEE011A31EE211AD6EDAC
:101AE000031A31EE211AD6ED041A31EE211A21EE35
:101AF000000A80EE201A84ED041A39E06068424D35
:101B0000012820D194ED030AD4ED040A30EE200A16
:101B100010EE100AFEF746FC9FED3C1B53EC112B18
:101B2000FEF74EFB9FED3B1B53EC112BFEF74EFCDB
:101B300009D23F20FC21CDE90110286900900FCD8A
:101B4000FFF74AF814E0606848B10C20CD21CDE9D8
:101B50000110286900900FCDFFF73EF808E004203F
:101B6000CDE901072D48016900910FC8FFF734F84E
:101B7000A068642800D9A76004B04046BDEC068B7D
:101B80000121BDE8F04100F0B0B80000000C0040B9
:101B900010000020600000200000803933335340E3
:101BA000940000200D0A205046392076616C75653E
:101BB000203D2025662056200D0A00000D0A2050E9
:101BC00046372076616C7565203D202566205620BD
:101BD0000D0A00000D0A205046382076616C7565AC
:101BE000203D2025662056200D0A000024040140D7
:101BF0000000014030A6B28B1656F03F00000000F6
:101C000000006440666666404C0000200000000052
:101C10000000E03F0000000000000040380000200D
:101C200070B588B005460C4601210220FFF7FEFB87
:101C300001210420FFF7D0FBC020069003208DF87F
:101C40001D0002208DF81C0001208DF81E008DF86B
:101C50001F00224E06A93046FFF731FB0322062162
:101C60003046FFF76AFB032207213046FFF765FB8A
:101C70001B4E304600F048F803A800F0EBF9ADF831
:101C80000C4004950024ADF80E40ADF814408DF8DA
:101C9000164003A9304600F09FF900231A4603219D
:101CA000304600F007F9684600F05AF9ADF80840F0
:101CB0006946304600F023F90121304600F012F861
:101CC00001221146304600F053F9054824300460E3
:101CD0000121304600F00CF808B070BD0008024049
:101CE00000040140C94301827047C9430182704723
:101CF000002904D0018841F001010180704701886A
:101D000021F001010180704710B55D49884209D179
:101D100001210846FFF798FB0021BDE81040012093
:101D2000FFF792BBB0F1804F0CD05649884213D1D7
:101D300001210220FFF76CFB0021BDE810400220CA
:101D4000FFF766BB01210846FFF762FB0021BDE8F3
:101D500010400120FFF75CBB4B49884209D10121AB
:101D60000420FFF755FB0021BDE810400420FFF7D9
:101D70004FBB4649884209D101210820FFF748FBA3
:101D80000021BDE810400820FFF742BB40498842CF
:101D900009D101211020FFF73BFB0021BDE81040D5
:101DA0001020FFF735BB3B49884209D10121202093
:101DB000FFF72EFB0021BDE810402020FFF728BBD5
:101DC0003549884209D101210220FFF73DFB00215E
:101DD000BDE810400220FFF737BB304988420AD1E6
:101DE00001210C042046FFF72FFB2046BDE81040E0
:101DF0000021FFF729BB2A4988420AD101214C045E
:101E00002046FFF721FB2046BDE810400021FFF7E8
:101E10001BBB244988420AD101218C042046FFF7CC
:101E200013FB2046BDE810400021FFF70DBB1E4903
:101E3000884209D101214020FFF7EAFA0021BDE8DC
:101E400010404020FFF7E4BA1849884209D1012127
:101E50008020FFF7DDFA0021BDE810408020FFF769
:101E6000D7BA134988420AD1841501212046FFF7C9
:101E7000CFFA2046BDE810400021FFF7C9BA10BDD7
:101E8000000001400004004000080040000C004039
:101E900000100040001400400004014000400140D8
:101EA000004401400048014000180040001C004070
:101EB0000020004070B50589048B068C25F00705CD
:101EC0000D434FF6FC410C4040F201110C4326F04B
:101ED00022064FF6FF7101EA0311114331430581D8
:101EE0000483018470BD02460020138A0B4092894E
:101EF0000A40002B02D0002A00D00120704770B5A4
:101F000006460C4625886188A2882389002D0CD0BE
:101F1000042D13D0082D1AD03046FFF7CAFBE188F4
:101F20003046BDE8704000F04BB83046FFF776FB16
:101F3000E1883046BDE8704000F026B83046FFF733
:101F400084FBE1883046BDE8704000F025B830469B
:101F5000FFF796FBE1883046BDE8704000F028B8F6
:101F600000210180418001228280C180018170476F
:101F7000002A03D082890A438281704782898A437A
:101F80008281704741627047028B22F00C0202830B
:101F9000028B0A4302837047028B22F44062028361
:101FA000028B4FF6FF7303EA01210A430283704755
:101FB000828B22F00C028283828B0A4382837047D9
:101FC000828B22F440628283828B4FF6FF7303EA96
:101FD00001210A438283704730B50288164C174DA1
:101FE000A0420DD0A8420BD0B0F1804F08D0144BC6
:101FF000984205D0134B984202D0134B984203D11C
:1020000022F070034A881A43104B984206D0104BB6
:10201000984203D022F440730A891A4302804A6826
:10202000C2620A880285A04201D0A84201D1897A01
:1020300001860121818230BD000001400004014081
:102040000004004000080040000C00400010004068
:10205000001400404FF0FF314160002101800181F8
:1020600041808172704700007FB504460D46012112
:102070000820FFF7BFF90294ADF804500020ADF836
:102080000600ADF80C000E4C01A92046FFF7A4FF96
:10209000012211462046FFF76BFF01212046FFF782
:1020A00027FE32208DF8000001208DF80100032169
:1020B0008DF802108DF803006846FFF74FF97FBDD9
:1020C000000C0040002904D0818941F40051818135
:1020D0007047818921F400518181704702460020B8
:1020E00012880A4200D00120704700007FB50446E4
:1020F0000D46208A20F44051E88808432082A089B8
:1021000041F20C618843A9882A8911436A890243F4
:102110001143A181A08A20F44071A8890843A082BC
:102120006846FFF79FF91E48844202D01D4884424A
:1021300001D1039800E00298A189090408D500EBB9
:10214000C00101EB001029684900B0FBF1F007E085
:1021500000EBC00101EB001029688900B0FBF1F031
:102160006422B0FBF2F109010B096FF018056B4313
:1021700000EB8300A3891D044FF0320307D503EB66
:10218000C000B0FBF2F000F00700084306E003EBEC
:102190000010B0FBF2F000F00F00084320817FBD7B
:1021A0000010014000140140C1F308018180704714
:1021B0000FB4054B10B503A9044A029800F0DAF8F1
:1021C00010BC5DF814FB0000A52A00086800002080
:1021D00002E008C8121F08C1002AFAD170477047F0
:1021E000002001E001C1121F002AFBD1704700004E
:1021F0002DE9FF5F82B00021DDE90430020DDDF83A
:1022000040B0034318D044F61050A2F2FF324243CC
:102210001514119801281FD0A5EB0B00401C5FEA94
:10222000000A4FF000064E4FDFF83891B046504696
:1022300015D5CAF1000413E0119801244AA301281E
:1022400001D16FEA0B010298119AC0E90031C0E98F
:10225000024206B0BDE8F09FCBF10000DFE7044684
:102260000021404A491842EB0450CDE9001012E029
:10227000E00707D032463B4640464946FDF7A0FFFF
:102280008046894632463B4610461946FDF798FF80
:1022900006460F466410002CEAD1DDE90401DDE9B1
:1022A0000023BAF1000F06DAFDF78AFF42464B46DB
:1022B000FDF786FF05E0FDF7F5FF42464B46FDF7CB
:1022C000F1FF04460E460022284BFEF74DFA03D8D4
:1022D0004FF0FF30014607E00022254B20463146F3
:1022E000FEF783F9FEF728FA102409E0002C0ADB38
:1022F0000A220023FEF7B4F8039B30321A55641EFD
:1023000050EA0102F2D1641C039AC4F1110314448F
:10231000119A012A03D0012208430DD10AE0084393
:1023200004D000204FF0110B119072E7A3EB0B05C6
:102330006D1E0DE05B4504DD4FF0000205F1010567
:1023400004E003DA4FF00002A5F10105002AECD009
:1023500002981199C0E90231C0E9004579E700000F
:10236000000014400000F03F300000000000F04387
:102370000000E03F2DE9FF4F95B09B468946064699
:1023800000250FE2252877D100242746F84A0121AD
:10239000059400E0044316F8013F203B01FA03F0E6
:1023A0001042F7D130782A2811D06FF02F033078FF
:1023B000A0F13002092A16D8059A44F0020402EB73
:1023C000820203EB42021044761C0590EFE759F8B5
:1023D000042B0592002A03DA504244F4005405907D
:1023E00044F00204761C30782E2816D116F8010F1E
:1023F00044F004042A280DD06FF02F023078A0F1A9
:102400003003092B09D807EB870302EB4303C718F6
:10241000761CF3E759F8047B761C30786C280FD0D3
:1024200006DC4C2817D068280DD06A2814D104E0A7
:10243000742810D07A280FD10DE044F400140AE07B
:1024400044F4801401E044F440147278824202D1D2
:1024500004F58014761C761C307866280BD013DCCB
:10246000582877D009DC002875D04528F6D04628B2
:10247000F4D047281AD19DE118E0632835D06428AC
:1024800079D0652812D195E1702873D008DC6728CF
:10249000F1D069286FD06E280DD06F2806D1B5E035
:1024A00073282CD0752875D0782874D05A4617997F
:1024B00090476D1C75E1C4F30250022809D003282F
:1024C0000DD0D9F8001004280DD00D6009F10409D1
:1024D00067E1D9F80010EA17C1E90052F6E7D9F828
:1024E00000100D80F2E70D70F0E719F8041B8DF86D
:1024F000001000208DF80100EA46012003E059F8A1
:1025000004AB4FF0FF3061074FF0000102D40DE043
:1025100008F101018846B9420FDA8045F8DB1AF864
:1025200008100029F4D108E008F101018846814231
:10253000FADB1AF808100029F6D105985B46A0EBE3
:10254000080721463846179A00F094FA284400EB11
:10255000080507E04DE029E10DE01AF8010B5A46A5
:1025600017999047B8F10108F7D25B4621463846E3
:10257000179A13E142E00A220092C4F302524FF08C
:10258000000A022A08D059F804CB032A4FEAEC715A
:102590000AD00DE029E02AE009F1070121F0070245
:1025A000F2E802C1914609E00FFA8CFC4FEAEC71A7
:1025B000042A03D14FFA8CFC4FEAEC71002907DAA8
:1025C0000A460021DCF1000C61EB02012D2202E041
:1025D000220504D52B228DF80420012203E0E20716
:1025E00001D02022F7E7904659E00A2102E01022AC
:1025F0000DE010214FF0000A00910BE010224FF087
:10260000000A44F004040827009203E008224FF077
:10261000000A0092C4F30252022A05D059F804CBF2
:102620000021032A08D009E009F1070121F007027F
:10263000F2E802C1914605E01FFA8CFC042A01D1A0
:102640000CF0FF0C4FF00008220728D5702806D0A8
:10265000009B83F0100353EA0A0305D00EE04022EA
:102660008DF80420012208E05CEA010206D0302245
:102670008DF804208DF8050002229046009B83F01F
:10268000080353EA0A030AD15CEA010201D1620796
:1026900005D530228DF804204FF001087F1E582800
:1026A00004D034A003900EA802900DE036A0F9E704
:1026B00053466046009AFDF7D3FE84460398825C39
:1026C0000298401E029002705CEA0100F0D102986C
:1026D00006A9081A00F1200A600702D524F4803404
:1026E00000E00127574502DDA7EB0A0000E00020CB
:1026F00000EB0A01009005984144401A0590E00360
:1027000006D45B462146179A059800F0B3F90544B4
:10271000002706E001A85A46C05D179990476D1C36
:102720007F1C4745F6DBE0030CD55B462146179A34
:10273000059800F09FF9054404E030205A461799A7
:1027400090476D1C0099481E00900029F5DC08E0B8
:10275000029802995A460078491C029117999047AD
:102760006D1CBAF10001AAF1010AF1DC65E100007B
:102770000928010030313233343536373839616257
:10278000636465660000000030313233343536371B
:1027900038394142434445460000000000F058F9F2
:1027A0000544761C307800287FF4ECAD19B028463B
:1027B000BDE8F08F620700D4062709F1070222F076
:1027C000070CFCE80223E14603F000485FEA080C2E
:1027D00002D00FF2702C0DE05FEA045C02D50FF21C
:1027E000682C07E05FEAC47C02D00FF2602C01E0A5
:1027F000AFF2700C4FF0FF3823F00043CDF850C01B
:1028000065280CD006DC452809D046281DD047286D
:102810003DD13DE0662818D067287ED138E0002100
:10282000112F01DB112000E0781CCDE9000106A981
:102830000EA8FFF7DDFCDDE90F010E9A03910021E0
:10284000009207F1010A04914DE04FF0004000971B
:10285000CDE9011006A90EA8FFF7CAFCDDE90F02B9
:1028600003920E9B11990022DDF80CA000930492B4
:1028700011B9791C00EB010AB7EB0A0004D4C0F1CE
:10288000FF3007F1010A0490AAEB0700019044E031
:10289000012F00DA01270021112F01DD112000E0B6
:1028A0003846CDE9000106A90EA8FFF7A1FCDDE935
:1028B0000F010E9A0391002104910092BA4621075C
:1028C0000CD40399514500DA8A46BAF1010F05DDAF
:1028D000009AAAF10101515C302908D0B84202DA0D
:1028E00010F1040F06DA0121CDE9011015E0AAF17B
:1028F0000101E9E7002805DC049901440491AAEBF1
:10290000000102E0411C514500DD8A460499401A4D
:10291000401C01904FF000400290200704D4019821
:10292000504501DBCDF8048000208DF84F0002985F
:102930000DF14F07B0F1004F25D02B200E900298DB
:102940004FF0020800280CDA404202902D200E9031
:1029500007E00A210298FDF76DFD3031029007F87B
:10296000011DB8F10001A8F10108F2DC029800286D
:10297000EFD1791E0E980870307800F0200040F0FA
:10298000450007F8020D12A8C01B00F107081498B3
:10299000007800B1012000EB0A01019801EBE07121
:1029A00005984144401A401E0590E00306D45B465A
:1029B0002146179A059800F05DF8054414980078B0
:1029C00018B15A46179990476D1CE00324D55B4611
:1029D0002146179A059800F04DF805441CE004982C
:1029E000002807DBDDE90301884203DD0098405C35
:1029F000179901E0179930205A469047049805F13D
:102A00000105401C04900198401E019004D12E2025
:102A10005A46179990476D1CBAF10001AAF1010AB4
:102A2000DDDC05E017F8010B5A46179990476D1C3D
:102A3000B8F10001A8F10108F4DC5B462146179AC1
:102A40000598ABE62D0000002B00000020000000E0
:102A50002DE9F041044600251E461746880404D49B
:102A600005E039462020B0476D1C641EF9D5284684
:102A7000BDE8F0812DE9F041044600251E46904650
:102A8000C80301D5302700E02027880404D505E0DD
:102A900041463846B0476D1C641EF9D52846BDE84E
:102AA000F081000070B50446064DE1B22846FFF7FC
:102AB0007BFB80212846FFF711FB0028F9D0204638
:102AC00070BD000000100140FEF700F8FEF7C0F8EE
:102AD000FEF7E0FB532140F2E730FFF7C5FAFDF7C0
:102AE0000BFFFEF78BFBFEE7082B00080000002021
:102AF0006C000000D0210008742B00086C0000203E
:102B000034040000E021000800000000010203047A
:102B1000010203040607080900000000000000008D
:102B200000000000000000000000000001020000A2
:102B30000102000000000802000000000000000088
:102B40000102000001020000000003510400000027
:102B500000000000010200000102000000000390DC
:102B6000FC3F000000000000000801000100000020
:042B70000000000061
:040000050800018965
:00000001FF
